:020000040800F2
:10000000000002209D4800087D420008834200084D
:10001000894200088F420008954200080000000055
:100020000000000000000000000000009B420008EB
:10003000A942000800000000B7420008C5420008BD
:10004000ED480008ED480008ED480008ED480008BC
:10005000ED480008ED480008ED480008ED480008AC
:10006000ED480008ED480008ED480008ED4800089C
:10007000ED480008ED480008ED480008ED4800088C
:10008000ED480008ED480008ED480008ED4800087C
:10009000ED480008ED480008ED480008ED4800086C
:1000A000ED480008ED480008ED480008ED4800085C
:1000B000ED480008ED480008ED480008D14200086E
:1000C000ED480008E5420008F9420008ED48000844
:1000D000ED480008ED480008ED480008ED4800082C
:1000E000ED480008ED480008ED480008ED4800081C
:1000F0000D430008ED480008ED480008ED480008F1
:10010000ED480008ED480008ED480008ED480008FB
:10011000ED480008ED480008ED480008ED480008EB
:10012000ED480008ED480008ED480008ED480008DB
:10013000ED4800080000000000000000ED48000845
:10014000ED480008ED480008ED480008ED480008BB
:10015000ED480008ED480008ED480008ED480008AB
:10016000ED480008ED480008ED480008ED4800089B
:10017000ED48000821430008ED4800080000000099
:1001800000000000ED480008000000000000000032
:10019000ED4800080000000000000000ED480008E5
:1001A000000000000000000000000000ED48000812
:1001B000ED480008ED480008ED480008ED4800084B
:0401C000ED480008FE
:1001D00010B5054C237833B9044B13B10448AFF381
:1001E00000800123237010BD600600200000000085
:1001F000BC3C010808B5034B1BB103490348AFF3EE
:10020000008008BD0000000064060020BC3C01081E
:1002100001F0FF01102A2BDB10F0070F08D010F8B7
:10022000013B013A8B422DD010F0070F42B3F6D1BB
:10023000F0B441EA012141EA014122F007047FF0D4
:1002400000070023F0E80256083C85EA010586EA2B
:10025000010685FA47F5A3FA87F586FA47F6A5FA67
:1002600087F68EB9EED1F0BC01F0FF0102F0070273
:1002700032B110F8013B013A83EA010313B1F8D11E
:100280000020704701387047002D06BF35460338FF
:10029000073815F0010F07D1013015F4807F02BF38
:1002A000013015F4C03F0130F0BC0138704700BF89
:1002B000034613F8012B002AFBD1181A01387047A6
:1002C00081F0004102E000BF83F0004330B54FEA07
:1002D00041044FEA430594EA050F08BF90EA020F74
:1002E0001FBF54EA000C55EA020C7FEA645C7FEA07
:1002F000655C00F0E2804FEA5454D4EB5555B8BF2A
:100300006D420CDD2C4480EA020281EA030382EA9A
:10031000000083EA010180EA020281EA0303362D2C
:1003200088BF30BD11F0004F4FEA01314FF4801CFF
:100330004CEA113102D0404261EB410113F0004F11
:100340004FEA03334CEA133302D0524263EB4303C8
:1003500094EA050F00F0A780A4F10104D5F1200E66
:100360000DDB02FA0EFC22FA05F2801841F10001C1
:1003700003FA0EF2801843FA05F359410EE0A5F195
:1003800020050EF1200E012A03FA0EFC28BF4CF0C6
:10039000020C43FA05F3C01851EBE37101F000457C
:1003A00007D54FF0000EDCF1000C7EEB00006EEB89
:1003B0000101B1F5801F1BD3B1F5001F0CD3490813
:1003C0005FEA30004FEA3C0C04F101044FEA44526A
:1003D00012F5800F80F09A80BCF1004F08BF5FEAF1
:1003E000500C50F1000041EB045141EA050130BDD1
:1003F0005FEA4C0C404141EB0101013C28BFB1F5E3
:10040000801FE9D291F0000F04BF01460020B1FA2D
:1004100081F308BF2033A3F10B03B3F120020CDA00
:100420000C3208DD02F1140CC2F10C0201FA0CF0DE
:1004300021FA02F10CE002F11402D8BFC2F1200C43
:1004400001FA02F120FA0CFCDCBF41EA0C019040F9
:10045000E41AA2BF01EB0451294330BD6FEA040442
:100460001F3C1CDA0C340EDC04F11404C4F120022D
:1004700020FA04F001FA02F340EA030021FA04F33F
:1004800045EA030130BDC4F10C04C4F1200220FA96
:1004900002F001FA04F340EA0300294630BD21FAD4
:1004A00004F0294630BD94F0000F83F4801306BF9A
:1004B00081F480110134013D4EE77FEA645C18BF8E
:1004C0007FEA655C29D094EA050F08BF90EA020F25
:1004D00005D054EA000C04BF1946104630BD91EA1D
:1004E000030F1EBF0021002030BD5FEA545C05D120
:1004F0004000494128BF41F0004130BD14F580045F
:100500003CBF01F5801130BD01F0004545F0FE41D2
:1005100041F470014FF0000030BD7FEA645C1ABF07
:10052000194610467FEA655C1CBF0B46024650EA3E
:10053000013406BF52EA033591EA030F41F400216A
:1005400030BD00BF90F0000F04BF0021704730B5F0
:100550004FF4806404F132044FF000054FF00001C5
:1005600050E700BF90F0000F04BF0021704730B586
:100570004FF4806404F1320410F0004548BF40425B
:100580004FF000013EE700BF42004FEAE2014FEAB0
:1005900031014FEA02701FBF12F07F4393F07F4F8B
:1005A00081F06051704732F07F4208BF704793F08E
:1005B0007F4F04BF41F40021704730B54FF46074A1
:1005C00001F0004521F000411CE700BF50EA0102A4
:1005D00008BF704730B54FF000050AE050EA01024D
:1005E00008BF704730B511F0004502D5404261EBBD
:1005F00041014FF4806404F132045FEA915C3FF4FE
:10060000D8AE4FF003025FEADC0C18BF03325FEA9A
:10061000DC0C18BF033202EBDC02C2F1200300FA4B
:1006200003FC20FA02F001FA03FE40EA0E0021FA70
:1006300002F11444BDE600BF70B54FF0FF0C4CF45E
:10064000E06C1CEA11541DBF1CEA135594EA0C0F10
:1006500095EA0C0F00F0DEF82C4481EA030621EA4B
:100660004C5123EA4C5350EA013518BF52EA033586
:1006700041F4801143F4801338D0A0FB02CE4FF038
:100680000005E1FB02E506F00042E0FB03E54FF068
:100690000006E1FB03569CF0000F18BF4EF0010E60
:1006A000A4F1FF04B6F5007F64F5407404D25FEA5C
:1006B0004E0E6D4146EB060642EAC62141EA55510F
:1006C0004FEAC52040EA5E504FEACE2EB4F1FD0C51
:1006D00088BFBCF5E06F1ED8BEF1004F08BF5FEACF
:1006E000500E50F1000041EB045170BD06F0004681
:1006F00046EA010140EA020081EA0301B4EB5C042E
:10070000C2BFD4EB0C0541EA045170BD41F4801125
:100710004FF0000E013C00F3AB8014F1360FDEBF4A
:10072000002001F0004170BDC4F10004203C35DA26
:100730000C341BDC04F11404C4F1200500FA05F3A9
:1007400020FA04F001FA05F240EA020001F000424A
:1007500021F0004110EBD37021FA04F642EB0601C0
:100760005EEA430E08BF20EAD37070BDC4F10C04EA
:10077000C4F1200500FA04F320FA05F001FA04F2AE
:1007800040EA020001F0004110EBD37041F100019A
:100790005EEA430E08BF20EAD37070BDC4F12005A5
:1007A00000FA05F24EEA020E20FA04F301FA05F20D
:1007B00043EA020321FA04F001F0004121FA04F2B5
:1007C00020EA020000EBD3705EEA430E08BF20EA85
:1007D000D37070BD94F0000F0FD101F000464000BF
:1007E00041EB010111F4801F08BF013CF7D041EA41
:1007F000060195F0000F18BF704703F00046520045
:1008000043EB030313F4801F08BF013DF7D043EA15
:100810000603704794EA0C0F0CEA135518BF95EACB
:100820000C0F0CD050EA410618BF52EA4306D1D152
:1008300081EA030101F000414FF0000070BD50EA71
:10084000410606BF1046194652EA430619D094EAFB
:100850000C0F02D150EA013613D195EA0C0F05D1E5
:1008600052EA03361CBF104619460AD181EA030139
:1008700001F0004141F0FE4141F470014FF00000F1
:1008800070BD41F0FE4141F4780170BD70B54FF08C
:10089000FF0C4CF4E06C1CEA11541DBF1CEA13550C
:1008A00094EA0C0F95EA0C0F00F0A7F8A4EB0504EE
:1008B00081EA030E52EA03354FEA013100F08880E5
:1008C0004FEA03334FF0805545EA131343EA1263AE
:1008D0004FEA022245EA111545EA10654FEA002663
:1008E0000EF000419D4208BF964244F1FD0404F51C
:1008F000407402D25B084FEA3202B61A65EB030578
:100900005B084FEA32024FF480104FF4002CB6EB34
:10091000020E75EB030E22BFB61A754640EA0C00B4
:100920005B084FEA3202B6EB020E75EB030E22BFF4
:10093000B61A754640EA5C005B084FEA3202B6EB35
:10094000020E75EB030E22BFB61A754640EA9C00F4
:100950005B084FEA3202B6EB020E75EB030E22BFC4
:10096000B61A754640EADC0055EA060E18D04FEA82
:10097000051545EA16754FEA06164FEAC30343EA22
:1009800052734FEAC2025FEA1C1CC0D111F4801FEF
:100990000BD141EA00014FF000004FF0004CB6E7E8
:1009A00011F4801F04BF01430020B4F1FD0C88BF87
:1009B000BCF5E06F3FF6AFAEB5EB030C04BFB6EB92
:1009C000020C5FEA500C50F1000041EB045170BD85
:1009D0000EF0004E4EEA113114EB5C04C2BFD4EBB2
:1009E0000C0541EA045170BD41F480114FF0000E36
:1009F000013C90E645EA060E8DE60CEA135594EAB2
:100A00000C0F08BF95EA0C0F3FF43BAF94EA0C0FB4
:100A10000AD150EA01347FF434AF95EA0C0F7FF429
:100A200025AF104619462CE795EA0C0F06D152EA7D
:100A300003353FF4FDAE1046194622E750EA410661
:100A400018BF52EA43067FF4C5AE50EA41047FF472
:100A50000DAF52EA43057FF4EBAE12E74FF0FF3CD7
:100A600006E000BF4FF0010C02E000BF4FF0010CA8
:100A70004DF804CD4FEA410C7FEA6C5C4FEA430C21
:100A800018BF7FEA6C5C1BD001B050EA410C0CBF70
:100A900052EA430C91EA030F02BF90EA020F0020D2
:100AA000704710F1000F91EA030F58BF994208BF39
:100AB00090422CBFD8176FEAE37040F001007047F6
:100AC0004FEA410C7FEA6C5C02D150EA013C07D14D
:100AD0004FEA430C7FEA6C5CD6D152EA033CD3D098
:100AE0005DF8040B704700BF8446104662468C4692
:100AF0001946634600E000BF01B5FFF7B7FF0028C5
:100B000048BF10F1000F01BD4DF808EDFFF7F4FFED
:100B10000CBF012000205DF808FB00BF4DF808ED78
:100B2000FFF7EAFF34BF012000205DF808FB00BF9B
:100B30004DF808EDFFF7E0FF94BF012000205DF8BD
:100B400008FB00BF4DF808EDFFF7CEFF94BF012072
:100B500000205DF808FB00BF4DF808EDFFF7C4FF6B
:100B600034BF012000205DF808FB00BF4FEA410CB4
:100B70007FEA6C5C02D150EA013C0AD14FEA430C97
:100B80007FEA6C5C02D152EA033C02D14FF00000D4
:100B900070474FF0010070474FEA410212F5001212
:100BA00015D211D56FF47873B3EB625212D94FEAB4
:100BB000C12343F0004343EA505311F0004F23FA9E
:100BC00002F018BF404270474FF00000704750EAF3
:100BD000013005D111F0004008BF6FF000407047B0
:100BE0004FF00000704700BF53B94AB9002908BF51
:100BF00000281CBF4FF0FF314FF0FF3000F070B9FC
:100C0000ADF1080C6DE904CE00F006F8DDF804E063
:100C1000DDE9022304B070472DE9F047089E0D4638
:100C200004460F46002B4AD18A42944665D9B2FA4F
:100C300082F343B102FA03FCC3F120029F4020FA81
:100C400002F217439C404FEA1C4E1FFA8CF5B7FB8B
:100C5000FEF1220C0EFB117742EA074201FB05F080
:100C600090420AD91CEB020201F1FF3780F01C818F
:100C7000904240F2198102396244121AA4B2B2FBC6
:100C8000FEF00EFB102244EA024400FB05F5A542EB
:100C90000AD91CEB040400F1FF3280F00781A54261
:100CA00040F204816444023840EA0140641B0021A0
:100CB0001EB1DC400023C6E90043BDE8F0878B424B
:100CC00008D9002E00F0ED800021C6E90005084695
:100CD000BDE8F087B3FA83F1002949D1AB4202D3D2
:100CE000824200F2F880841A65EB03020120174665
:100CF000002EE2D0C6E90047DFE702B9FFDEB2FA14
:100D000082F3002B40F090808A1A4FEA1C471FFAAA
:100D10008CFE0121B2FBF7F507FB1520220C42EAFD
:100D200000420EFB05F0904208D91CEB020205F1CF
:100D3000FF3802D2904200F2CB804546121AA4B28C
:100D4000B2FBF7F007FB102244EA02440EFB00FE60
:100D5000A64508D91CEB040400F1FF3202D2A645D7
:100D600000F2BB801046A4EB0E0440EA05409FE76A
:100D7000C1F120078B4022FA07FC4CEA030C05FA6C
:100D800001F420FA07F3FD404FEA1C492343B5FB69
:100D9000F9F81FFA8CFE09FB18551C0C44EA0544AF
:100DA00008FB0EF5A54202FA01F200FA01F00BD998
:100DB0001CEB040408F1FF3A80F08880A54240F261
:100DC0008580A8F102086444641B9DB2B4FBF9F36A
:100DD00009FB134445EA044403FB0EFEA64508D96B
:100DE0001CEB040403F1FF356CD2A6456AD9023B23
:100DF000644443EA0843A3FB0295A4EB0E04AC420F
:100E0000C846AE4656D353D056B1B0EB080264EB99
:100E10000E0404FA07F7CA40CC401743C6E9007431
:100E200018460021BDE8F087C3F1200102FA03FC57
:100E300020FA01F225FA01F19D402A434FEA1C47AE
:100E40001FFA8CFEB1FBF7F007FB1015110C41EAFD
:100E5000054100FB0EF58D4204FA03F408D91CEBA2
:100E6000010100F1FF382FD28D422DD902386144A3
:100E7000491B92B2B1FBF7F507FB151142EA01429B
:100E800005FB0EF1914208D91CEB020205F1FF3877
:100E900016D2914214D9023D6244521A45EA0041E9
:100EA00038E73146304608E73946E6E61046FBE6C5
:100EB0004845A9D2B9EB020865EB0C0E013BA3E74C
:100EC0004546EAE72B4694E74046D1E7D0467BE724
:100ED000023D624432E708460AE76444023842E7CA
:100EE000704700BF80B48FB000AFF860B9607A601F
:100EF0003B6000233B6100233B753B687B637A6B5F
:100F00003B6C13447B62BB683B623A6A7B68134468
:100F1000FB61BB683B633B6B0133FB620023FB76E9
:100F2000012387F82B30BB68002B02D03B68002BD5
:100F30000AD101233B75FB681A4607F1100393E8B9
:100F4000030082E8030066E03B6C002B40D0FA6AA5
:100F5000FB699A4205D33B7D43F00203DBB23B754C
:100F600036E07B6B5A1C7A631B78FB76FB7E002B8A
:100F70000FD13B6B97F82B201A70FB6A5A1CFA6250
:100F80003B63012387F82B307A6B7B6A9A42DED36E
:100F90001EE0FB6A5A1CFA62FA7E1A7097F82B3030
:100FA000013387F82B307A6B7B6A9A420FD297F81D
:100FB0002B30FF2BCBD13B6B97F82B201A70FB6AA1
:100FC0005A1CFA623B63012387F82B30BFE700BF4E
:100FD0003A6BFB699A4207D33B7D43F00203DBB2D5
:100FE0003B75FB69FB620AE03B6B97F82B201A709C
:100FF000FB6A5A1CFA623B633B6B00221A70FA6A66
:101000003B6AD31A3B61FB681A4607F1100393E869
:10101000030082E80300F8683C37BD465DF8047BB6
:10102000704780B48FB000AF78607B681A897B68A6
:101030001B681B8A9A4201D3002356E17B681B6818
:101040001A687B685B899B0013441B68FB62FB6A20
:101050001B0ADAB27B689A75FB6A03F00303022B62
:101060005AD0022B00F29480002B02D0012B1FD00B
:101070008EE07B6801229A82FB6A9B089BB203F098
:101080003F039AB27B681A82FB6A1B0E5BB203F0C5
:101090000F0387F83330FB6A1B0CDBB27B63FB6A00
:1010A0001B0F9BB203F00F039AB27B685A82B4E025
:1010B0007B681B681A687B685B8901339B0013445B
:1010C0001B68FB61FB6A1B0C9BB2C3F30B039AB258
:1010D0007B689A82FB6A9B089BB203F03F039AB23B
:1010E000FB691B0F9BB29B019BB213439AB27B68B7
:1010F0001A82FB6A1B0F5BB203F00F0387F83330D1
:10110000FB699BB27B63FB691B0C9BB2C3F30B03B4
:101110009AB27B685A8280E07B681B681A687B6899
:101120005B8901339B0013441B68BB627B681B68AF
:101130001A687B685B8902339B0013441B687B62DF
:101140007B681B681A687B685B8903339B001344C8
:101150001B683B62FB6A1B0C9AB27B689A82FB6A33
:101160009B089BB203F03F039AB2BB6A1B0A9BB277
:101170009B019BB213439AB27B681A82BB6A87F8C1
:1011800033307B6A7B633B6A9AB27B685A8244E065
:101190007B681B681A687B685B8901339B0013447A
:1011A0001B68BB617B681B681A687B685B890233BC
:1011B0009B0013441B687B617B681B681A687B6813
:1011C0005B8903339B0013441B683B617B681B688E
:1011D0001A687B685B8904339B0013441B68FB60BF
:1011E000FB689AB27B689A82FB6A9B089BB203F009
:1011F0003F039AB2BB691B0A9BB29B019BB213438C
:101200009AB27B681A82BB6987F833307B697B634B
:101210003B699AB27B685A8200BF7B685B68002B8F
:1012200006D17B6800229A617B6800221A6241E045
:101230007B685A687B6B1A447B689A6197F93330F4
:10124000002B08D07B689A6997F933305B421A44C7
:101250007B681A621AE07B689B7D03F03003202BC9
:1012600011D17B689B7D03F0C003002B05D07B6808
:101270009B7D03F0C003802B05D17B6803F1140232
:101280007B681A6202E07B6800221A627B689B7DA1
:1012900003F0C003802B09D17B689B69002B05D02C
:1012A0007B689B691A687B68DA6103E07B689A69EE
:1012B0007B68DA617B689B7D03F00F03082B05D008
:1012C0007B689B7D03F00F03092B0AD17B681B68A9
:1012D0005A687B68DB899B0013441A687B685A62F2
:1012E00002E07B6800225A62012318463C37BD4663
:1012F0005DF8047B704780B485B000AF78607B6890
:101300001B8901339AB27B681A817B681A897B68D2
:101310001B681B8A9A420CD37B6800221A817B6867
:1013200000225A817B680022DA817B6800229A8140
:101330003CE07B681B681A687B685B899B001344F0
:101340001B68FB60FB681B0AFB72FB6803F003036E
:10135000012202FA03F33B817B685A893B891344DB
:101360009AB27B685A817B689A89FB7A03F03003D2
:10137000002B0CBF01230023DBB29BB213449AB2B3
:101380007B689A817B68DA89FB7A03F00F03082B6C
:1013900004D0FB7A03F00F03092B01D1012300E0F5
:1013A00000239BB213449AB27B68DA8100BF1437E2
:1013B000BD465DF8047B704780B584B000AFF8602F
:1013C000B9607A6028220021F86810F0BBFDFB6844
:1013D000BA681A60FB687A685A60F868FFF721FEFD
:1013E000034618461037BD4680BD80B586B000AFB5
:1013F000786039603B681B689B683B613B691B6890
:101400001B68FB60FB681B0A03F0C003802B09D13B
:101410003B6804331A4639697868FFF7CDFF034605
:10142000FB7508E03B685B681A4639697868FFF726
:10143000C3FF0346FB753B6803F10C027B681A622D
:10144000FB7D18461837BD4680BD80B582B000AF21
:1014500078607868FFF74FFF7868FFF7E2FD7B68F8
:101460001B89002B14BF01230023DBB21846083769
:10147000BD4680BD80B485B000AF78607B68FB60FE
:10148000FB6818461437BD465DF8047B704780B58D
:1014900084B000AFF860B9607A607868FFF7EAFF5F
:1014A00003461A46B968F868FFF786FF03461846F0
:1014B0001037BD4680BD80B582B000AF786039601E
:1014C0003868FFF7D7FF034619467868FFF78DFFA6
:1014D000034618460837BD4680BD80B586B000AFCC
:1014E000F860B9607A607B685B8A082B25D17B68DD
:1014F000DB697B617B69002B1FD0FB68002B0CD064
:101500007B691B68002B08D07B691B687A690432F1
:101510007968F8689847034610E0BB68002B0CD048
:101520007B691B68002B08D07B691B687A690432D1
:101530007968B8689847034600E0012318461837D1
:10154000BD4680BD80B586B000AFF860B9607A60F6
:10155000FB685B687B617A697B681A44FB685A6048
:101560007A68B968786910F06CFD0123184618375D
:10157000BD4680BDB0B48BB000AFF860B9607A6092
:101580000B4B7B61BB68BB617B68FB6100233B62EB
:1015900000237B62FB681D4607F114040FCC0FC5C6
:1015A00023682B60F8682C37BD46B0BC704700BF7D
:1015B0004515000880B584B000AFF860B9607A6066
:1015C0007B68002B37D0FB681B68002B33D0FB688F
:1015D000DA687B681A44FB68DB689A4207D3FB68C9
:1015E000DA687B681A44FB689B689A420BD9FB68EF
:1015F0001B69002B02D0FB681B6900E0134BFA68E3
:10160000136100231EE0FB681B687A68B968F868FC
:101610009847034683F00103DBB2002B0BD0FB6835
:101620001B69002B02D0FB681B6900E0084BFA68BD
:101630001361002306E0FB68DA687B681A44FB68E4
:10164000DA60012318461037BD4680BDD83C01083A
:10165000E43C010880B485B000AF78607B68BB6073
:101660000023FB600AE0BA68FB6813441B78002B78
:1016700001D0012306E0FB680133FB60FB68002B0F
:10168000F1D0002318461437BD465DF8047B70473F
:10169000B0B58CB000AF786039603B681B6A1B88BE
:1016A000BB84BB8C002B01D101233DE13B689B7DBA
:1016B00003F0C003802B10D03B689B8ABA8C9A42FF
:1016C0000BD97B681B69002B02D07B681B6900E08B
:1016D000974B7A681361002326E13B689B7D03F0FA
:1016E0000F03052B00F2B3803B681B8A1A460221C8
:1016F000786800F0DDFC034683F00103DBB2002BC9
:1017000001D0002310E13B689B7D03F00F03042B05
:1017100003D1BB8C9B00BB6247E03B689B7D03F021
:101720000F03052B03D1BB8CDB00BB623DE007F14F
:10173000080300221A605A609A60DA601A613B68F6
:10174000DB69FB610023FB8526E007F108033968AC
:10175000184600F0EFFD034683F00103DBB2002BD7
:1017600010D07B681B69002B02D07B681B6905E0E9
:10177000BB69002B01D0BB6900E06E4B7A68136136
:101780000023D1E03B68DB693A68528A1A443B681F
:10179000DA61FB8D0133FB85FA8DBB8C9A42D4D381
:1017A0003B68FA69DA617B69BB62BB6A00221C464E
:1017B000154622462B46786800F0F7FB034683F077
:1017C0000103DBB2002B01D00023ADE07B681B6876
:1017D000002B06D1BA6A00217868FFF7EBFE0346BA
:1017E000A2E00023FB852DE03B689B7D03F00F0307
:1017F000042B05D03B689B7D03F00F03052B0BD119
:101800003968786800F058FE034683F00103DBB2C4
:10181000002B0DD0002387E03968786800F08AFD3E
:10182000034683F00103DBB2002B01D000237BE0F1
:101830003B68DB693A68528A1A443B68DA61FB8D7F
:101840000133FB85FA8DBB8C9A42CDD36BE000232C
:10185000FB8564E03B689B7D03F0C003802B47D190
:101860003B689B7D03F00F03072B05D03B689B7DF6
:1018700003F00F03062B3BD13B68DB693B623B68FF
:10188000DB691A683B68DA613B68DB69002B1CD1B5
:101890003968786800F036FC0346002B0BD04FF017
:1018A00000024FF00003786800F07FFB0346002B36
:1018B00001D0012300E0002387F8273097F8273074
:1018C00003F0010387F8273006E03968786800F0F4
:1018D00051F9034687F827303B683A6ADA6197F88E
:1018E000273083F00103DBB2002B0DD000231BE077
:1018F0003968786800F03EF9034683F00103DBB2F3
:10190000002B02D000230FE000BF3B68DB693A6880
:10191000528A1A443B68DA61FB8D0133FB85FA8DEC
:10192000BB8C9A4296D3012318463037BD46B0BDD2
:10193000F03C0108083D010880B592B000AF786026
:101940007B689B7D87F8453097F8453003F0C003EE
:10195000002B40F0C98097F8453003F03003002B8E
:1019600001D1002300E197F8453003F03003202B2C
:1019700008D17B681B6A1B88002B0CBF0123002346
:10198000DBB2F1E097F8453003F03003302B08D19B
:101990007B681B6A1B88002B0CBF01230023DBB272
:1019A000E2E097F8453003F03003102B15D17B6847
:1019B0001B6A002B11D07B681B6A1846FFF74AFE92
:1019C0000346002B14BF01230023DBB283F0010385
:1019D000DBB203F00103DBB2C6E07B681B689B68E7
:1019E000002B01D00023BFE097F8453003F00F0330
:1019F000052B1CD87B68DB697B630023A7F8463086
:101A00000DE0B7F846307A6B13441B78002B01D0F9
:101A10000023A9E0B7F846300133A7F846307B68C9
:101A20005B8AB7F846209A42EBD301239CE097F8F3
:101A3000453003F00F03062B0AD17B68DB69BB63DB
:101A4000BB6B1B88002B0CBF01230023DBB28BE098
:101A500097F8453003F00F03072B08D17B68DB694B
:101A60001B78002B0CBF01230023DBB27CE097F82E
:101A7000453003F00F030B2B07D17B685B8A002BEB
:101A80000CBF01230023DBB26EE097F8453003F072
:101A90000F03082B05D097F8453003F00F03092BEF
:101AA00061D17B68596A7B68DA6907F10C031846D3
:101AB000FFF782FC0346002B14D007F10C031846F5
:101AC000FFF73AFF034683F00103DBB2002B01D09E
:101AD000002349E007F10C031846FFF7B6FC034664
:101AE000002BEAD101233FE097F8453003F0C00313
:101AF000802B07D17B68DB69002B0CBF01230023FF
:101B0000DBB231E097F8453003F0C003402B2AD117
:101B100097F8453003F00F030A2B0AD17B68DB6985
:101B20001B68FB63FB6B002B0CBF01230023DBB2A4
:101B30001AE07B681B68DB680D4A93420AD17B6818
:101B4000DB693B643B6C1B68002B0CBF012300234B
:101B5000DBB209E07B681B68DB68002B0CBF01234C
:101B60000023DBB200E0002318464837BD4680BDA5
:101B7000DB14000880B582B000AF786039603B6844
:101B8000DB69002B01D1012361E03968786800F03E
:101B9000B9FA034683F00103DBB2002B01D0002326
:101BA00055E03B689B7D03F00F030B2B44D801A24B
:101BB00052F823F0E51B0008F11B0008F11B000898
:101BC000F11B0008FD1B0008FD1B0008091C000894
:101BD000151C0008211C0008211C0008391C0008E5
:101BE0002D1C00083968786800F08AFB03462EE057
:101BF0003968786800F09EFB034628E03968786809
:101C000000F05AFC034622E03968786800F082FC54
:101C100003461CE03968786800F0BAFC034616E019
:101C20003968786800F012FD034610E0396878687A
:101C300000F052FD03460AE07B681B69002B02D0CE
:101C40007B681B6900E0044B7A6813610023184627
:101C50000837BD4680BD00BF103D010880B582B089
:101C600000AF786039603B681B68DB68002B18D0D8
:101C70003B681B68DB683A68796800209847034630
:101C800083F00103DBB2002B0BD07B681B69002BB8
:101C900002D07B681B6900E0044B7A681361002363
:101CA00000E0012318460837BD4680BD243D0108E9
:101CB00080B582B000AF786039603B689B7D03F0EF
:101CC0003003302B08D13B681B6A1A883B681B8A9B
:101CD0009A4226D0012359E03B689B7D03F03003F4
:101CE000102B1ED13B681B6A002B0CD03B681B6A73
:101CF0001846FFF7AFFC034683F00103DBB2002B6D
:101D00000FD0012342E03B689B7D03F0C003002B12
:101D100007D13868FFF710FE0346002B01D00123DE
:101D200034E03B68DB69002B13D13B689B7D03F0FB
:101D30003003002B0BD17B681B69002B02D07B6822
:101D40001B6900E0134B7A68136100231EE0012336
:101D50001CE03B689B7D03F0C003402B05D1396834
:101D60007868FFF77BFF034610E03B689B7D03F03C
:101D70003003202B05D139687868FFF789FC0346CA
:101D800004E039687868FFF7F5FE0346184608371F
:101D9000BD4680BD343D010880B58CB000AF786091
:101DA000396007F1080339681846FFF784FB0346DA
:101DB00083F00103DBB2002B0BD07B681B69002B87
:101DC00002D07B681B6900E0074B7A68136100232F
:101DD00006E007F1080319467868FFF769FF034634
:101DE00018463037BD4680BD4C3D010880B584B0F3
:101DF00000AF786039603B68DB691B68FB601EE000
:101E0000FB681B685B68002B08D0FB681B685B687D
:101E1000F968786898470346FB7205E0F9687868C6
:101E2000FFF7BAFF0346FB72FB7A83F00103DBB2D4
:101E3000002B01D0002306E0FB689B68FB60FB6879
:101E4000002BDDD1012318461037BD4680BD80B57B
:101E50008EB000AFF860B9607A6007F110037A685D
:101E6000B9681846FFF713FB034683F00103DBB2A2
:101E7000002B01D001232AE097F8263003F00F034E
:101E80000A2B0DD107F110031946F868FFF7AEFFD2
:101E9000034683F00103DBB2002B0FD0002316E0D2
:101EA00007F110031946F868FFF702FF034683F0B5
:101EB0000103DBB2002B01D0002308E007F110037F
:101EC0001846FFF7C2FA0346002BD5D10123184666
:101ED0003837BD4680BD80B588B000AFF860B960C6
:101EE0007A600023FB61BB68DBB203F07F03FB7603
:101EF000BB68DB09BB6013E0FB7E63F07F03FB760E
:101F0000FB695A1CFA6120333B44FA7E03F8102C1B
:101F1000BB68DBB203F07F03FB76BB68DB09BB6009
:101F2000FB69032B05D8BB68002BE5D17B68002B30
:101F3000E2D17B68002B24D07B68DBB21B01DBB2D3
:101F400003F07003DAB2FB7E1343FB767B68DB0899
:101F50007B6013E0FB7E63F07F03FB76FB695A1C1A
:101F6000FA6120333B44FA7E03F8102C7B68DBB225
:101F700003F07F03FB767B68DB097B607B68002BCB
:101F8000E8D1FB695A1CFA6120333B44FA7E03F81E
:101F9000102C07F11003FA691946F868FFF70AFBDD
:101FA000034618462037BD4680BD90B587B000AFC8
:101FB000F860C7E90023D7E90023802A73F1000302
:101FC0000AD23B78FB7507F1170301221946F8681E
:101FD000FFF7F0FA03460FE03C68D7E900014FF045
:101FE00000024FF000030A00002313461A46214660
:101FF000F868FFF770FF034618461C37BD4690BDD2
:102000002DE9B04F8AB000AF7861C7E902234FF0E5
:10201000FF326FF00043C7E90623D7E90223002B04
:1020200015DAD7E90201D7E9062300EA020401EA3A
:10203000030523193B6045EB05037B60D7E90023CB
:102040006FEA020A6FEA030BC7E908AB07E0D7E9BA
:10205000022312EB020843EB0309C7E90889D7E919
:1020600008237869FFF7A1FF034618462837BD46C5
:10207000BDE8B08F80B582B000AF786039600422CF
:1020800039687868FFF796FA034618460837BD4660
:1020900080BD80B582B000AF7860396008223968B1
:1020A0007868FFF787FA034618460837BD4680BDB3
:1020B0002DE9B04F88B000AF78610B46FA60FB7431
:1020C000FB6800229A4693464FEA5A754FEACA04C3
:1020D000FB7C00229846914644EA08033B6045EAAF
:1020E00009037B60D7E90034C7E90634D7E9062342
:1020F0007869FFF75AFF034618462037BD46BDE80A
:10210000B08F000080B584B000AF786039603B6864
:102110009B7D03F00F030B2B26D801A252F823F06E
:1021200051210008512100085121000851210008C7
:10213000572100085D210008632100086321000881
:102140006321000863210008692100086321000859
:102150000023FB7314E00523FB7311E00123FB73E1
:102160000EE00223FB730BE07B681B69002B02D09F
:102170007B681B6900E0094B7A681361002308E063
:102180003B681B8A1A46FB7B19467868FFF790FF6D
:10219000034618461037BD4680BD00BF103D0108FC
:1021A000B0B584B000AFF860B9607A607B68002297
:1021B0001C46154622462B46F868FFF7F6FE0346F6
:1021C00083F00103DBB2002B01D0002305E07A6825
:1021D000B968F868FFF7EEF9034618461037BD46B0
:1021E000B0BD0000B0B58CB000AFF860B9607A60E7
:1021F00007F1140300221A605A609A60DA601A61CB
:1022000007F114037A68B9681846FFF720FE034601
:1022100083F00103DBB2002B04D07A6AFB681A61F9
:10222000002365E03B6AFB62FB6A00221C46154600
:1022300022462B46F868FFF7B8FE034683F00103F9
:10224000DBB2002B01D0002352E0FB681B68002B9F
:1022500006D1FA6A0021F868FFF7ACF9034647E0B7
:10226000FB68DA68FB6A1A44FB689B689A420BD9E0
:10227000FB681B69002B02D0FB681B6900E01E4B4A
:10228000FA681361002333E0FB681B687B61FB681D
:102290005B68BB61FB6AFB6100233B6200237B62DE
:1022A00007F114037A68B9681846FFF7D0FD0346B2
:1022B00087F82B30FB68DA683B6A1A44FB68DA60FF
:1022C000BA69FB685A607A6AFB681A613B6AFA6A03
:1022D0009A420BD0FB681B69002B02D0FB681B697C
:1022E00000E0064BFA681361002301E097F82B30F9
:1022F00018463037BD46B0BDD83C0108603D0108E6
:10230000B0B584B000AF786039603B68DB691846CF
:10231000FFF7A0F90346FB60FB6800221C46154648
:1023200022462B467868FFF740FE034618461037D2
:10233000BD46B0BD2DE9B04F8CB000AFF861B961BA
:10234000BB699B7D03F00F03022B52D14FF00002BB
:102350004FF00003C7E90A23BB695B8A012B0BD14D
:10236000BB69DB691B78DBB200223B617A61D7E98C
:102370000434C7E90A3435E0BB695B8A022B0BD110
:10238000BB69DB691B889BB20022BB60FA60D7E99E
:102390000234C7E90A3425E0BB695B8A042B0AD101
:1023A000BB69DB691B6800223B607A60D7E90034B7
:1023B000C7E90A3416E0BB695B8A082B06D1BB6902
:1023C000DB69D3E90023C7E90A230BE0FB691B693A
:1023D000002B02D0FB691B6900E0364BFA691361E0
:1023E000002361E0D7E90A23F869FFF7DEFD034621
:1023F0005AE04FF000024FF00003C7E90823BB6921
:102400005B8A012B0AD1BB69DB6993F900305BB2AF
:10241000DA179A469346C7E908AB32E0BB695B8A94
:10242000022B0AD1BB69DB69B3F900301BB2DA17A2
:1024300098469146C7E9088923E0BB695B8A042B6B
:1024400008D1BB69DB691B68DA171C461546C7E96A
:10245000084516E0BB695B8A082B06D1BB69DB69BE
:10246000D3E90023C7E908230BE0FB691B69002BB4
:1024700002D0FB691B6900E00E4BFA69136100236F
:1024800012E0BB699B7D03F00F03032B06D1D7E954
:102490000823F869FFF7B4FD034605E0D7E90823F0
:1024A000F869FFF782FD034618463037BD46BDE8A0
:1024B000B08F00BF743D010880B582B000AF786076
:1024C00039603B685B8A042B07D13B68DB6919469E
:1024D0007868FFF7CFFD034616E03B685B8A082B60
:1024E00007D13B68DB6919467868FFF7D2FD0346E0
:1024F0000AE07B681B69002B02D07B681B6900E047
:10250000034B7A681361002318460837BD4680BD27
:10251000743D010880B584B000AF78603960002355
:10252000FB603B68DB69FB60FB68002B06D1002287
:1025300000217868FFF734FE034622E03B689B7D6C
:1025400003F0C003002B13D1FB681B881A463B68BD
:102550005B8A023B9A420BD97B681B69002B02D035
:102560007B681B6900E0094B7A681361002308E06F
:10257000FB68991CFB681B881A467868FFF710FEF9
:10258000034618461037BD4680BD00BF883D010890
:1025900080B586B000AF7860396000237B613B680E
:1025A0005B8A3B613B68DB69BB603B689B7D03F0FA
:1025B000C003802B03D14FF0FF333B6111E03B6937
:1025C000002B0BD17B681B69002B02D07B681B6939
:1025D00000E01C4B7A68136100232FE03B69013B4C
:1025E0003B61BB68002B02D100237B6120E0BB680C
:1025F000FB6005E07B6901337B61FB680133FB60B5
:102600007A693B699A4203D2FB681B78002BF1D1AF
:10261000FB681B78002B0BD07B681B69002B02D05A
:102620007B681B6900E0084B7A681361002305E0B2
:102630007A69B9687868FFF7B3FD0346184618371A
:10264000BD4680BD9C3D0108B03D010880B584B009
:1026500000AF786039603B685B6A002B0BD17B6808
:102660001B69002B02D07B681B6900E0194B7A685C
:102670001361002329E03B689B7D03F00F03092BC6
:102680001AD13B681B6A002B16D03B681B6A083BBB
:10269000FB60FB681B68002B0ED0FB681B68FA68A8
:1026A0000432396878689847034683F00103DBB247
:1026B000002B01D0002308E03B68596A3B68DB69C6
:1026C0001A467868FFF78EFD034618461037BD4658
:1026D00080BD00BFC43D010880B582B000AF786006
:1026E00039603B68D9693B685B8A1A467868FFF7AE
:1026F00057FD034618460837BD4680BD80B400AF7D
:10270000044B4AF6AA221A6000BFBD465DF8047B5E
:10271000704700BF0030004080B588B004AF7860DB
:1027200039600023FB737B6802933B6801934FF48D
:1027300080730093064B074A0749022008F0AEFA5F
:102740000346FB7397F90F3018461037BD4680BD1E
:10275000492E0008C12D0008412D000880B588B021
:1027600002AF78604FF480737B61234BBB60002322
:10277000FB747B6903F00303002B04D07B699B0887
:1027800001339B007B610023FB6027E0FFF7B6FF6E
:1027900001F0FEFBBA68FB68D31A7A699A420DD938
:1027A000BA68FB68D31A7B617B6903F00303002BD3
:1027B00004D07B699B0801339B007B61FB680F4A57
:1027C00098187B6800937B69FA68B96808F088F903
:1027D0000346FB74FA687B691344FB60FA68BB68C4
:1027E0009A4203D297F91330002BCFD097F91330C8
:1027F00018461837BD4680BD302B020060400108E6
:102800002DE9F04F97B008AFF860B960BB687B6303
:10281000FB689B780B2B40F08280FB68D3F8033079
:1028200007F114021146184609F024FD02F0C4F81D
:1028300002467B6B5A61FB68D3F80730D3E900236B
:10284000C7E90A23D7E90A0102460B464FF0000AFE
:102850004FF0000B4FEA431B4BEAD26B4FEA421A90
:1028600052465B46B2EB000863EB01094FF00002F1
:102870004FF000034FEA891343EA98634FEA881246
:10288000B2EB080463EB09054FF000024FF00003C0
:10289000EB0043EA5473E20014461D4623183B60E4
:1028A00045EB01037B60D7E90034C7E90A34D7E977
:1028B0000A011EA3D3E90023FEF796F902460B4650
:1028C00013467B62BA6A7B6A174901FB03F3D31A8A
:1028D0003B627B6B9B683B607B6B93F800C07B6BC0
:1028E0005B787A6B9278B7F91410B7F91600B7F9DC
:1028F0001840B7F91A50BE8B0696059504940390BC
:1029000002910192009363463A6A796A386800F04E
:1029100035FF7B6B9B685A1C7B6B9A6000E000BFA5
:102920003C37BD46BDE8F08F00CA9A3B00CA9A3BCF
:1029300000000000000000002DE9F04F93B006AF4A
:10294000F860B960BB68FB62FB689B78072B40F0BE
:102950009580FB68D3F8033007F110021146184642
:1029600009F0D4FC02F028F80246FB6A5A61FB68C1
:10297000D3F80730D3E90023C7E90823D7E90801D2
:1029800002460B464FF0000A4FF0000B4FEA431B84
:102990004BEAD26B4FEA421A52465B46B2EB000852
:1029A00063EB01094FF000024FF000034FEA891377
:1029B00043EA98634FEA8812B2EB080463EB090517
:1029C0004FF000024FF00003EB0043EA5473E200C3
:1029D00014461D4623183B6045EB01037B60D7E995
:1029E0000034C7E90834D7E9080128A3D3E9002354
:1029F000FEF7FAF802460B461346FB613A6AFB699A
:102A0000214901FB03F3D31ABB61B7F9103007EE7C
:102A1000903AF8EEE77AFB6AC3ED077AB7F912301D
:102A200007EE903AF8EEE77AFB6AC3ED087AB7F959
:102A3000143007EE903AF8EEE77AFB6AC3ED097AB4
:102A4000FB6A012283F83420FB6A9D68FB6A1E78CA
:102A5000FB6A5B78FA6A9278B7F91010B7F912003E
:102A6000B7F9144004940390029101920093334605
:102A7000BA69F969284600F0F3FE00E000BF343778
:102A8000BD46BDE8F08F00BF00CA9A3B00CA9A3B22
:102A900000000000000000002DE9F04F93B006AFE9
:102AA000F860B960BB68FB62FB689B78072B40F05D
:102AB0009780FB68D3F8033007F1100211461846DF
:102AC00009F024FC01F078FF0246FB6A5A61FB68BA
:102AD000D3F80730D3E90023C7E90823D7E9080171
:102AE00002460B464FF0000A4FF0000B4FEA431B23
:102AF0004BEAD26B4FEA421A52465B46B2EB0008F1
:102B000063EB01094FF000024FF000034FEA891315
:102B100043EA98634FEA8812B2EB080463EB0905B5
:102B20004FF000024FF00003EB0043EA5473E20061
:102B300014461D4623183B6045EB01037B60D7E933
:102B40000034C7E90834D7E908012AA3D3E90023F0
:102B5000FEF74AF802460B461346FB613A6AFB69E8
:102B6000234901FB03F3D31ABB61B7F9103007EE19
:102B7000903AF8EEE77AFB6AC3ED0A7AB7F91230B9
:102B800007EE903AF8EEE77AFB6AC3ED0B7AB7F9F5
:102B9000143007EE903AF8EEE77AFB6AC3ED0C7A50
:102BA000FB6A012283F83520FB6A9D68FB6A1E7868
:102BB000FB6A5B78FA6A92781432D2B2B7F91010D5
:102BC000B7F91200B7F914400494039002910192EE
:102BD00000933346BA69F969284600F041FE00E0E7
:102BE00000BF3437BD46BDE8F08F00BFAFF30080B3
:102BF00000CA9A3B00CA9A3B0000000080B487B02C
:102C000000AF786039603B687B617B68D3F8033044
:102C10001B78FB747B68D3F803305B78BB747B68EC
:102C2000D3F803309B787B747B681B78FE2B02D132
:102C3000244BFB6005E07B681B78F82B37D1224BD7
:102C4000FB60FB7C013B132B33D801A252F823F02D
:102C5000B32C0008B32C0008B32C0008B32C0008D8
:102C6000B32C0008B32C0008B32C0008B32C0008C8
:102C7000B32C0008B32C0008B32C0008B32C0008B8
:102C8000B32C0008B32C0008B32C0008B32C0008A8
:102C9000B32C0008B32C0008A12C0008B32C0008AA
:102CA0007B69002B07D07B6901221A7603E000BF05
:102CB00002E000BF00E000BF1C37BD465DF8047BAA
:102CC000704700BFBC3E0108CC3E010880B400AF95
:102CD000044B4AF6AA221A6000BFBD465DF8047B89
:102CE000704700BF0030004080B483B000AF03469F
:102CF000FB71FB79002B01D1002301E06FF002038F
:102D000018460C37BD465DF8047B704780B500AFB0
:102D1000094B1B78DBB2002B0BD1074B01221A7039
:102D2000064802F0EDFB00F057FF034B00221A703B
:102D300000E000BF80BD00BF7C060020844C002066
:102D400080B58CB004AFB9607A603B600346FB731A
:102D50003B68BB610123FB77BB69002B02D14FF0BD
:102D6000FF3327E0BB691B79FB820023BB7717E0A9
:102D7000FB8A5B0099B2FB7B9AB27B689BB21920FD
:102D800002900193BB68009301230C4802F0E0FD20
:102D90000346FB77FB7F002B06D0BB7F0133BB775D
:102DA000BB7F012BE4D900E000BFFB7F1846FFF793
:102DB0009BFF034618462037BD4680BD844C00204B
:102DC00080B58CB004AFB9607A603B600346FB739A
:102DD0003B68BB610123FB77BB69002B02D0BB685A
:102DE000002B02D14FF0FF3327E0BB691B79FB8238
:102DF0000023BB7717E0FB8A5B0099B2FB7B9AB29A
:102E00007B689BB2322002900193BB680093012340
:102E10000C4802F0A3FC0346FB77FB7F002B06D097
:102E2000BB7F0133BB77BB7F012BE4D900E000BF40
:102E3000FB7F1846FFF758FF034618462037BD466C
:102E400080BD00BF844C002080B584B000AF7860A6
:102E5000396019E07B68B3F57A7F28BF4FF47A7345
:102E6000FB600D4B1B6800225A6200BF0A4B1B68B7
:102E70005B6AFA689A42F9D87A68FB68D31A7B6071
:102E800001F086F8FFF722FF7B68002BE2D100BF3C
:102E900000BF1037BD4680BD384D002080B582B0E0
:102EA00000AF786039603A687968002009F0A6FAC6
:102EB000034618460837BD4680BD000080B400AF09
:102EC000044B4AF6AA221A6000BFBD465DF8047B97
:102ED000704700BF0030004080B586B002AF0346A7
:102EE000FB71E023FB81FB79072B01D9012326E04D
:102EF000154B1B78FA799A4201D100231FE0FB7928
:102F0000012202FA03F3DBB23B7307F10C02F989E9
:102F10006423009301230D4802F022FB03467B73D8
:102F20007B7B002B07D1084AFB79137000216420BA
:102F3000FFF78AFF02E0044BFF221A707B7B1846E2
:102F40001037BD4680BD00BF00000020844C00202B
:102F500090B583B000AF0023FB716EE0FFF7AEFFCA
:102F600001F016F8FA7939491346DB009B1ADB00A9
:102F70000B4403331B787B71FB79FA794FF4427170
:102F800001FB03F33249194430481346DB009B1A16
:102F9000DB00034410331960FA792C491346DB0037
:102FA0009B1ADB000B440C3300221A700123BB7107
:102FB0007B791846FFF790FF03463B713B79002B66
:102FC00015D1022001F004FDFA7920491346DB00F7
:102FD0009B1ADB000B4404331B789BB25B0099B255
:102FE000142302221B4802F0D9FE0346BB71BB79B1
:102FF000002B1FD1FB79184600F02EF80346FB701A
:1030000097F90330002B15D1FA7910491346DB00EC
:103010009B1ADB000B440C3301221A70FC7901F07F
:10302000CBFC024609492346DB001B1BDB000B449B
:1030300014331A60FB790133FB71FB79132B8DD9A3
:1030400000BF00BF0C37BD4690BD00BF040000208C
:1030500080060020844C00202DE9F0438BB000AFA7
:103060000346FB716B461E46FFF728FF002387F8D7
:103070002730132387F8253097F825100B46013B9E
:103080003B62CBB20022984691464FF000024FF0CF
:1030900000034FEAC90343EA58734FEAC802CBB2B0
:1030A00000221C4615464FF000024FF00003EB00D3
:1030B00043EA5473E2000B460733DB08DB00ADEB59
:1030C000030D6B460033FB610023FB8100237B7300
:1030D00000233B730023FB72FA7976491346DB0029
:1030E0009B1ADB000B4410331868FA791346DB0097
:1030F0009B1ADB006F4A13441946FFF70DFB03468A
:103100001A46FB691A70FA796A491346DB009B1A62
:10311000DB000B4410331B68184607F0A7FD03467D
:103120001A46FB695A70FA7962491346DB009B1A0A
:10313000DB000B4410331A6807F10D0311461846E3
:1031400007F043FC03461A46FB699A70FA7959491D
:103150001346DB009B1ADB000B4410331A6807F19F
:103160000C031146184607F04AFC03461A46FB6951
:10317000DA707B7B892B02D0FB690122DA70012394
:10318000FB76FA794B491346DB009B1ADB000B44B4
:1031900010331A68FB7E1146184607F0DBFC034625
:1031A0001A46FB691A712023BB76FA794149134606
:1031B000DB009B1ADB000B4410331A68BB7E114600
:1031C000184607F0E3FC03461A46FB695A710023D0
:1031D0007B76FA7937491346DB009B1ADB000B44F8
:1031E00010331A687B7E1146184607F0EBFC034645
:1031F0001A46FB699A7100233B76FA792D491346EA
:10320000DB009B1ADB000B4410331A683B7E11462F
:10321000184607F0F3FC03461A46FB69DA71FA799F
:1032200024491346DB009B1ADB000B4410331A6859
:1032300007F10B031146184607F015FC03461A4622
:10324000FB691A72FB7A03F01003002B00F018815F
:10325000FA7918491346DB009B1ADB000B44103344
:103260001B681846FFF77AFA03461A46FB691A727A
:10327000FB6993F90830002B03D0FB6993F9083000
:1032800017E1FA790B491346DB009B1ADB000B446C
:1032900010331B68184607F045FC03461A46FB69C5
:1032A0001A72FB6993F90830002B05D0FB6993F97A
:1032B0000830FEE004000020FA7981491346DB0063
:1032C0009B1ADB000B4410331A6807F10E031146FA
:1032D000184607F0AEFB03461A46FB695A72FA79A4
:1032E0001346DB009B1ADB00754A9918FA7974487B
:1032F0001346DB009B1ADB00034410331B680A46AD
:103300007049FE2007F0F4FC03461A46FB699A72E6
:10331000FA791346DB009B1ADB00694A9918FA799F
:1033200067481346DB009B1ADB00034410331B681D
:103330000A466449F82007F0DBFC03461A46FB699D
:10334000DA72FA791346DB009B1ADB005C4A9918A3
:10335000FA795B481346DB009B1ADB000344103309
:103360001B680A465849252007F0C2FC03461A4646
:10337000FB691A73FA791346DB009B1ADB00504A8B
:103380009918FA794E481346DB009B1ADB00034478
:1033900010331B680A464D49132007F0A9FC034669
:1033A0001A46FB695A73FA791346DB009B1ADB0055
:1033B000434A9918FA7942481346DB009B1ADB000E
:1033C000034410331B680A464149652007F090FC0E
:1033D00003461A46FB699A73FA7939491346DB00AA
:1033E0009B1ADB000B4410331B68184607F0D4FC13
:1033F00003461A46FB69DA73364B7B6100233B6157
:10340000FA792F491346DB009B1ADB000B4410337B
:103410001B681A46396997ED050A252007F0B4FAAA
:1034200003461A46FB691A74FA7925491346DB00EC
:103430009B1ADB000B4410331B681A46396997ED61
:10344000050A132007F0A0FA03461A46FB695A74CE
:10345000FA791B491346DB009B1ADB000B4410333F
:103460001B681A46396997ED050A652007F08CFA42
:1034700003461A46FB699A74002387F8263010E049
:10348000012316E097F82630FA69D25697F92730CB
:1034900013435BB287F8273097F82630013387F85B
:1034A000263097F8262097F825309A42EAD397F9E4
:1034B0002730B54618462C37BD46BDE8F08300BF1F
:1034C00004000020FD2B000801280008392900080D
:1034D000992A00080000C84190B585B000AF0346A6
:1034E000FB71FB79132B64D8FB79344AD35CFF2B37
:1034F00006D0FB79314AD25C0132D1B22F4AD15485
:10350000FB792E4AD35C032B04D1FFF7FFFB2C4B36
:10351000FF221A70FB79294AD35C072B4AD901F0A4
:103520004BFAF860FB79274A52F82330002B09D078
:10353000FB79244A52F82330FA68D31A42F20F7208
:10354000934237D9FB791F49FA6841F82320FA7969
:103550001D491346DB009B1ADB000B440C33002291
:103560001A70022001F034FAFB791846FFF774FD57
:103570000346002B15D1FA7913491346DB009B1A39
:10358000DB000B440C3301221A70FC7901F014FAB1
:1035900002460D492346DB001B1BDB000B441433A2
:1035A0001A60FB79054A0021D154054BFF221A709D
:1035B00000E000BF1437BD4690BD00BF204B002087
:1035C00000000020344B00200400002090B583B0A0
:1035D00000AF0023FB71C0E0FFF770FC00F0D8FCE7
:1035E000FA7962491346DB009B1ADB000B440C336B
:1035F0001B7883F00103DBB2002B40F0AA80FA793C
:103600005A491346DB009B1ADB000B4418331B7826
:10361000002B39D0FA7955491346DB009B1ADB00A1
:103620000B44183300221A70FB791846FFF714FD7B
:103630000346002B16D1FA794C491346DB009B1A3E
:10364000DB000B440C3301221A70FC7901F0B4F951
:10365000024646492346DB001B1BDB000B441433A8
:103660001A6009E0FA7941491346DB009B1ADB0036
:103670000B440C3300221A70FB793D4A0021D154CF
:103680003C4BFF221A7065E0FA7938491346DB009B
:103690009B1ADB000B4403331B78BB71BB791846C4
:1036A000FFF71AFC0346002B04D0FB791846FFF7FE
:1036B00013FF4FE0FA792D491346DB009B1ADB001C
:1036C0000B4410331B681A464FF400612A4807F078
:1036D00059F803467B7197F90530002B04D0FB792C
:1036E0001846FFF7F9FE35E001F066F93860FA791F
:1036F0001E491346DB009B1ADB000B4414331B6886
:10370000002B0ED1FA7919491346DB009B1ADB0016
:103710000B4414333A681A60FB79154A0021D154DE
:1037200018E0FA7911491346DB009B1ADB000B44C1
:1037300014331B683A68D31AB3F5FA7F04D9FB79BE
:103740001846FFF7C9FE05E0FB79094A0021D1546C
:1037500000E000BFFB790133FB71FB79132B7FF68F
:103760003BAF00BF00BF0C37BD4690BD040000203A
:10377000204B0020000000202043002080B596B0A0
:1037800000AFF860B9607A60FB7007F1100348225F
:10379000002118460EF0D6FBFB683B61FB783B75B9
:1037A00097F86030BB6197F86430FB61012387F8BC
:1037B0003830BB68FB637B683B64B7F9683007EE61
:1037C000903AB8EEE77ADFED236AC7EE267AC7EDC6
:1037D000117AB7F96C3007EE903AB8EEE77ADFED80
:1037E0001D6AC7EE267AC7ED127AB7F9703007EE78
:1037F000903AB8EEE77ADFED176AC7EE267AC7EDA2
:10380000137AB7F9743007EE903AB8EEE77ADFED45
:10381000116AC7EE267AC7ED147AB7F8783007EE4A
:10382000903AF8EEE77A9FED0C7A67EE877ADFED53
:10383000096A87EEA67ADFED096AC7EE267AC7ED38
:10384000157A07F11003184600F04AF800BF583700
:10385000BD4680BD0000804600003443DB0F494078
:1038600080B596B000AFF860B9607A60FB7007F180
:1038700010034822002118460EF064FBFB683B61F0
:10388000FB783B7597F86030BB6197F86430FB615B
:10389000012387F82030BB687B627B68BB62B7F985
:1038A000683007EE903AF8EEE77AC7ED0B7AB7F991
:1038B0006C3007EE903AF8EEE77AC7ED0C7AB7F97C
:1038C000703007EE903AF8EEE77AC7ED0D7A07F11F
:1038D0001003184600F004F800BF5837BD4680BDFD
:1038E00080B58CB002AF786007F1080380222A49C6
:1038F0001846FDF73FFE07F108037A682749184686
:10390000FEF7A5FA034683F00103DBB2002B01D0DA
:1039100002233DE07B6907F11C0000931E4B8022CF
:103920001F49FDF7DFFA97F82030002B01D0032361
:103930002EE00AF073F80346002B09D00AF080F855
:10394000034683F00103DBB2002B01D0012300E02A
:10395000002303F00103DBB283F00103DBB2002B91
:1039600001D0012314E0FB6919460D48FFF796FAD0
:103970007862FB697A6A9A4203D000F0EDFA01237B
:1039800006E000F0DDFA0821064801F05AFC0023A9
:1039900018462837BD4680BD844B002048400108AA
:1039A000044C00200000024080B582B000AF00232C
:1039B000FB712BE0FA7919491346DB009B1ADB00F7
:1039C0000B4403331B78BB71BB791846FFF784FAAD
:1039D00003467B717B79002B15D1FB79184600F0EB
:1039E0003DF803463B713B79002B01D0012311E0E8
:1039F000FB79184600F014F80346FB70FB78002BA7
:103A000001D0012306E0FB790133FB71FB79132B15
:103A1000D0D9002318460837BD4680BD04000020D9
:103A200080B584B000AF0346FB710023FB73FA79C5
:103A300009491346DB009B1ADB000B4410331B685B
:103A40001946FE2007F0F6F80346FB73FB7B184689
:103A50001037BD4680BD00BF0400002080B584B093
:103A600000AF0346FB710023FB73FA790949134643
:103A7000DB009B1ADB000B4410331B681946FE2049
:103A800007F0D8F80346FB73FB7B18461037BD469A
:103A900080BD00BF0400002080B58AB000AF07F1F0
:103AA000140300221A605A609A60DA601A610023D7
:103AB0003B61464B1B6B454A43F004031363434B86
:103AC0001B6B03F004033B613B690023FB603F4B2E
:103AD0001B6B3E4A43F0800313633C4B1B6B03F0AC
:103AE0008003FB60FB680023BB60384B1B6B374ACD
:103AF00043F001031363354B1B6B03F00103BB6001
:103B0000BB6800237B60314B1B6B304A43F00203E0
:103B100013632E4B1B6B03F002037B607B68002357
:103B20003B602A4B1B6B294A43F008031363274B66
:103B30001B6B03F008033B603B6800221C212448F8
:103B400001F066FB1C237B610123BB610023FB6149
:103B500000233B6207F1140319461D4801F0D0F819
:103B60004FF480537B614FF48813BB610023FB61EA
:103B700000233B6207F114031946164801F0C0F810
:103B800020237B610123BB610023FB6100233B6297
:103B900007F1140319460F4801F0B2F80122202161
:103BA0000C4801F035FB4FF4C0537B610023BB612F
:103BB0000023FB6100233B6207F11403194604480C
:103BC00001F09EF800BF2837BD4680BD0038024096
:103BD000000002400004024080B500AF174B184AB5
:103BE0001A60164B174A5A60144B00229A60134B06
:103BF0000022DA60114B4FF480421A610F4B002211
:103C00005A610E4B00229A610C4B0022DA610B4B79
:103C100000221A62094801F02FFB0346002B01D055
:103C200000F0FEFA0021054804F076FA0346002B66
:103C300001D000F0F5FA00BF80BD00BF844C002029
:103C400000540040801A060080B500AF124B134AA2
:103C50001A60114B124A5A600F4B00229A600E4BA9
:103C60000022DA600C4B4FF480421A610A4B0022AA
:103C70005A61094B00229A61074B0022DA61064B18
:103C800000221A62044801F0F7FA0346002B01D023
:103C900000F0C6FA00BF80BDD84C0020005800409C
:103CA000801A060080B58CB000AF786007F11C0365
:103CB00000221A605A609A60DA601A617B681B6899
:103CC0004E4A934234D10023BB614D4B1B6B4C4A8F
:103CD00043F0020313634A4B1B6B03F00203BB6107
:103CE000BB69C023FB6112233B6200237B6201237B
:103CF000BB620423FB6207F11C031946414800F034
:103D0000FFFF00237B613E4B1B6C3D4A43F40013D5
:103D100013643B4B1B6C03F400137B617B69002233
:103D200000211F2000F077FF1F2000F090FF60E0CF
:103D30007B681B68344A93425BD100233B61304B64
:103D40001B6B2F4A43F0020313632D4B1B6B03F0D5
:103D500002033B613B690023FB60294B1B6B284A34
:103D600043F004031363264B1B6B03F00403FB6057
:103D7000FB684FF48063FB6112233B6200237B628C
:103D80000123BB620423FB6207F11C0319461D4893
:103D900000F0B6FF4FF48053FB6112233B62002317
:103DA0007B620123BB620423FB6207F11C031946FB
:103DB000164800F0A5FF0023BB60114B1B6C104A96
:103DC00043F4800313640E4B1B6C03F48003BB604D
:103DD000BB6800220021212000F01DFF212000F0FF
:103DE00036FF00220021222000F015FF222000F0E3
:103DF0002EFF00BF3037BD4680BD00BF00540040DD
:103E00000038024000040240005800400008024010
:103E100080B582B000AF78607B681B68194A934216
:103E200011D1194B1B6C184A23F400131364402161
:103E3000164801F0F9F88021144801F0F5F81F2028
:103E400000F013FF1AE07B681B68114A934215D1FA
:103E50000D4B1B6C0C4A23F4800313644FF48061F8
:103E60000A4801F0E1F84FF480510A4801F0DCF80B
:103E7000212000F0FAFE222000F0F7FE00BF0837F4
:103E8000BD4680BD0054004000380240000402409E
:103E9000005800400008024080B582B000AF786052
:103EA00039603A687968002008F0A8FA0346184695
:103EB0000837BD4680BD80B500AF002008F0CAFAC3
:103EC0000346184680BD000080B582B000AF144B99
:103ED0004CF6CC421A60124B45F255521A60104B08
:103EE00004225A600E4B40F2FF729A6000F064FDAB
:103EF000786000BF0A4BDB6803F00303002B06D099
:103F000000F05AFD02467B68D31A632BF2D9044BAA
:103F10004AF6AA221A6000BF0837BD4680BD00BF1E
:103F20000030004080B400AF044B4AF6AA221A6069
:103F300000BFBD465DF8047B704700BF0030004005
:103F400080B400AF034B00221A6000BFBD465DF88D
:103F5000047B7047304D002080B400AF0A4B1B68D3
:103F6000B3F1FF3F04D0084B1B680133064A1360CE
:103F7000054B1B68132B02D9044B01221A7000BF9A
:103F8000BD465DF8047B7047304D00202D4D00206C
:103F900080B500AF114B1B78DBB2002B0CD00F4B60
:103FA00000221A700E4B00221A6009F05DFD3220CB
:103FB00000F00EFD09F06CFD0A4B1B78DBB2002B04
:103FC0000AD0084B00221A7000214FF0FF3009F090
:103FD00069FE00BFFFF76FFF00BF80BD2D4D0020C1
:103FE000304D00202C4D002080B500AF00F07EFC4D
:103FF00000F032F800F0A4F8FFF74EFDFFF7ECFDFB
:10400000FFF722FE00F038FB00F04CFA00F0A6FAB1
:104010000F4805F0A3FB0F4805F008FC012009F04C
:104020005BFD642000F0D4FC4FF47A7000F0D0FC0B
:10403000FFF74AFFFEF78CFFFFF7B6FCFFF7A8FF7C
:10404000FFF7C4FAFFF76EFFFFF7A2FFF6E700BF26
:10405000384D0020804D002080B594B000AF07F1AE
:104060001C033422002118460DF06CFF07F10803F1
:1040700000221A605A609A60DA601A6100237B603D
:104080002D4B1B6C2C4A43F0805313642A4B1B6C42
:1040900003F080537B607B6800233B60274B1B68E9
:1040A000264A43F440431360244B1B6803F4404307
:1040B0003B603B680123FB614FF480333B6202238A
:1040C0007B634FF48003BB630823FB634FF4B4733B
:1040D0003B6402237B640823BB640223FB6407F177
:1040E0001C03184605F04CF80346002B01D000F0E5
:1040F00097F804F095F90346002B01D000F090F8F2
:104100000F23BB600223FB6000233B614FF4A053ED
:104110007B614FF48053BB6107F10803052118460A
:1041200004F0CEF90346002B01D000F079F800BF6F
:104130005037BD4680BD00BF0038024000700040CF
:1041400080B598B000AF3B1D5C22002118460DF0F1
:10415000F9FE4FF440737B600423FB6160233B62F4
:104160000223BB6204237B6201233B634FF00063A5
:10417000BB650023BB643B1D184604F0A7FA034649
:10418000002B01D000F04CF800BF6037BD4680BD69
:1041900080B584B000AF78607B68DBB23B7307F119
:1041A0000C0301211846FFF777FE7B68184610378D
:1041B000BD4680BD80B586B000AFF860B9607A605A
:1041C00000237B6109E0BB685A1CBA601B78184663
:1041D000FFF7DEFF7B6901337B617A697B689A4276
:1041E000F1DB7B6818461837BD4680BD80B582B0CC
:1041F00000AF78607B681B68064A934206D1064B85
:1042000001221A700421054801F01BF800BF08378D
:10421000BD4680BD000401402C4D0020000002403E
:1042200080B400AF72B600BFFEE7000080B483B078
:1042300000AF00237B60104B5B6C0F4A43F480435C
:1042400053640D4B5B6C03F480437B607B680023FD
:104250003B60094B1B6C084A43F080531364064BC8
:104260001B6C03F080533B603B6800BF0C37BD46BE
:104270005DF8047B704700BF0038024080B400AF97
:10428000FEE780B400AFFEE780B400AFFEE780B485
:1042900000AFFEE780B400AFFEE780B400AF00BF20
:1042A000BD465DF8047B704780B400AF00BFBD46DB
:1042B0005DF8047B704780B400AF00BFBD465DF879
:1042C000047B704780B500AF00F062FB00BF80BD8B
:1042D00080B500AF024801F08FFE00BF80BD00BF77
:1042E000844C002080B500AF024801F085FE00BF7D
:1042F00080BD00BFD84C002080B500AF024801F05F
:10430000CEFF00BF80BD00BFD84C002080B500AFFD
:10431000024805F0FBFA00BF80BD00BF804D0020C1
:1043200080B500AF01200CF05DFD00BF80BD80B402
:1043300000AF01231846BD465DF8047B704780B589
:1043400082B000AF786039600DF04EFE0346162251
:104350001A604FF0FF3318460837BD4680BD80B560
:1043600082B000AF78604FF0FF317868FFF7E7FF69
:10437000FEE780B586B000AFF860B9607A600023D0
:104380007B610AE0AFF300800146BB685A1CBA604B
:10439000CAB21A707B6901337B617A697B689A4281
:1043A000F0DB7B6818461837BD4680BD80B483B00B
:1043B00000AF78604FF0FF3318460C37BD465DF80C
:1043C000047B704780B483B000AF786039603B688D
:1043D0004FF400525A60002318460C37BD465DF872
:1043E000047B704780B483B000AF78600123184627
:1043F0000C37BD465DF8047B704780B485B000AFD4
:10440000F860B9607A60002318461437BD465DF83D
:10441000047B704780B586B000AF7860144A154BB6
:10442000D31A7B617B693B61134B1B68002B02D164
:10443000114B124A1A60104B1A687B6813443A6990
:104440009A4207D20DF0D0FD03460C221A604FF0BD
:10445000FF3309E0084B1B68FB60074B1A687B6859
:104460001344054A1360FB6818461837BD4680BDE3
:104470000000022000100000344D0020086D0020D4
:1044800080B400AF064BD3F88830054A43F470037C
:10449000C2F8883000BFBD465DF8047B704700BF9E
:1044A00000ED00E080B588B000AF04F0EFF80346FF
:1044B000274AA2FB03239B0CFB6107F10C0300229C
:1044C0001A605A609A60DA603B1D00221A605A60D6
:1044D000204B214A1A60FB69013B1E4A53601D4B69
:1044E00000229A601B4B4FF6FF72DA60194B0022D4
:1044F0001A61184B00225A61164B80229A611548A6
:1045000005F0DCF80346002B01D0FFF789FE4FF4DD
:104510008053FB6007F10C0319460E4805F0FEFAC4
:104520000346002B01D0FFF77BFE00237B600023B6
:10453000BB603B1D1946074805F01AFD0346002BDA
:1045400001D0FFF76DFE00BF2037BD4680BD00BF24
:1045500083DE1B43384D00200000014080B586B04B
:1045600000AF07F1080300221A605A609A60DA600F
:104570003B4600221A605A601E4B1F4A1A601D4BB0
:1045800005225A601B4B00229A601A4B4EF65F229E
:10459000DA60184B00221A61164B00225A61154B43
:1045A00000229A61134805F089F80346002B01D0D8
:1045B000FFF736FE4FF48053BB6007F1080319463E
:1045C0000C4805F0ABFA0346002B01D0FFF728FE9C
:1045D00000233B6000237B603B461946054805F0FD
:1045E000C7FC0346002B01D0FFF71AFE00BF1837A7
:1045F000BD4680BD804D00200004014080B584B0E0
:1046000000AF78607B681B68184A93420ED1002384
:10461000FB60174B5B6C164A43F001035364144B69
:104620005B6C03F00103FB60FB681AE07B681B68AE
:10463000104A934215D10023BB600D4B5B6C0C4AB2
:1046400043F0020353640A4B5B6C03F00203BB604C
:10465000BB68002200212C2000F0DDFA2C2000F0A5
:10466000F6FA00BF1037BD4680BD00BF0000014014
:10467000003802400004014080B500AF154B164AD7
:104680001A60144B08225A60124B0222DA60114B56
:1046900000221A610F4B02229A610E4B0022DA614E
:1046A0000C4B00221A620B4B00225A62094B00226B
:1046B000DA62084B00221A63064B00225A6305484F
:1046C00003F066FD0346002B01D0FFF7A9FD00BFF4
:1046D00080BD00BFC84D00200000044080B58AB0F6
:1046E00000AF786007F1140300221A605A609A60E4
:1046F000DA601A617B681B681D4A934234D100233B
:104700003B611C4B1B6B1B4A43F002031363194BA9
:104710001B6B03F002033B613B694FF440437B6139
:104720000223BB610023FB6103233B620C237B62FA
:1047300007F114031946104800F0E2FA0023FB6069
:104740000C4B1B6B0B4A43F000531363094B1B6B61
:1047500003F00053FB60FB68002200214D2000F0B5
:104760005AFA4D2000F073FA00BF2837BD4680BDCD
:1047700000000440003802400004024080B400AF52
:10478000024B1846BD465DF8047B7047A86B0308D2
:1047900080B483B000AF0346FB71034B18460C375F
:1047A000BD465DF8047B7047BC6B030880B584B0E0
:1047B00000AF03460A46FB711346BB80FB79002B12
:1047C00008D1214B1B681B889AB2204B5A800123C9
:1047D000FB7327E0FB79052B01D900232FE0FB7940
:1047E000194A52F82330BB60B868FBF761FD0346F5
:1047F000FB73FB7B1F2B01D91F23FB730023BB73B0
:104800000CE0BB7BBA6813441A78BB7B013391B2CE
:104810000E4A22F81310BB7B0133BB73BA7BFB7BC0
:104820009A42EED3FB7B01339BB25B009BB21BB27F
:1048300043F440731BB29AB2044B1A80034B1846E0
:104840001037BD4680BD00BF68040020D452002050
:1048500080B400AFBFF34F8F00BF064BDB6803F49B
:10486000E0620449044B1343CB60BFF34F8F00BF9A
:1048700000BFFDE700ED00E00400FA0580B582B05E
:1048800000AF044B7B60044B3B603B687A681A6066
:10489000FFF7DEFFD4327F15FCFF0120DFF834D0B4
:1048A0000D480E490E4A002302E0D458C450043388
:1048B000C4188C42F9D30B4A0B4C002301E013605F
:1048C0000432A242FBD3FFF7DBFD0DF093FBFFF7B1
:1048D0008BFB7047000002200000002060060020D3
:1048E0004471030860060020086D002080B500AF09
:1048F0000E4B1B680D4A43F4007313600B4B1B688F
:104900000A4A43F480631360084B1B68074A43F468
:1049100080731360032000F073F90F2000F008F893
:10492000FFF784FC0023184680BD00BF003C024016
:1049300080B582B000AF7860124B1A68124B1B78BA
:1049400019464FF47A73B3FBF1F3B2FBF3F3184655
:1049500000F099F90346002B01D001230EE07B689B
:104960000F2B0AD8002279684FF0FF3000F053F97E
:10497000064A7B681360002300E0012318460837CD
:10498000BD4680BD64040020840400208004002013
:1049900080B400AF064B1B781A46064B1B681344C5
:1049A000044A136000BFBD465DF8047B704700BF3A
:1049B000840400201453002080B400AF034B1B6814
:1049C0001846BD465DF8047B704700BF14530020B5
:1049D00080B584B000AF7860FFF7EEFFB8607B6809
:1049E000FB60FB68B3F1FF3F05D00A4B1B781A460A
:1049F000FB681344FB6000BFFFF7DEFF0246BB68A5
:104A0000D31AFA689A42F7D800BF00BF1037BD46E4
:104A100080BD00BF8404002080B485B000AF786002
:104A20007B6803F00703FB600C4BDB68BB60BA6874
:104A30004FF6FF031340BB60FB681A02BB681343C9
:104A400043F0BF6343F40033BB60044ABB68D360E8
:104A500000BF1437BD465DF8047B704700ED00E0F1
:104A600080B400AF044BDB681B0A03F00703184651
:104A7000BD465DF8047B704700ED00E080B483B074
:104A800000AF0346FB7197F90730002B0BDBFB7976
:104A900003F01F02074997F907305B09012000FA6C
:104AA00002F241F8232000BF0C37BD465DF8047BBD
:104AB000704700BF00E100E080B483B000AF034660
:104AC000FB7197F90730002B12DBFB7903F01F0213
:104AD0000A4997F907305B09012000FA02F22033F6
:104AE00041F82320BFF34F8F00BFBFF36F8F00BF8C
:104AF00000BF0C37BD465DF8047B704700E100E065
:104B000080B483B000AF03463960FB7197F907307A
:104B1000002B0ADB3B68DAB20C4997F90730120127
:104B2000D2B20B4483F800230AE03B68DAB20849AA
:104B3000FB7903F00F03043B1201D2B20B441A7647
:104B400000BF0C37BD465DF8047B704700E100E014
:104B500000ED00E080B489B000AFF860B9607A6021
:104B6000FB6803F00703FB61FB69C3F10703042B38
:104B700028BF0423BB61FB690433062B02D9FB6900
:104B8000033B00E000237B614FF0FF32BB6902FA78
:104B900003F3DA43BB681A407B699A404FF0FF3158
:104BA0007B6901FA03F3D9437B680B401343184632
:104BB0002437BD465DF8047B7047000080B582B0A5
:104BC00000AF78607B68013BB3F1807F01D30123A4
:104BD0000FE00A4A7B68013B53600F214FF0FF3022
:104BE000FFF78EFF054B00229A60044B07221A60E4
:104BF000002318460837BD4680BD00BF10E000E026
:104C000080B582B000AF78607868FFF705FF00BF1D
:104C10000837BD4680BD80B586B000AF0346B96099
:104C20007A60FB7300237B61FFF71AFF78617A6873
:104C3000B9687869FFF78EFF024697F90F30114681
:104C40001846FFF75DFF00BF1837BD4680BD80B531
:104C500082B000AF0346FB7197F907301846FFF7A3
:104C60000DFF00BF0837BD4680BD80B582B000AFE4
:104C70000346FB7197F907301846FFF71DFF00BF89
:104C80000837BD4680BD80B582B000AF78607868D7
:104C9000FFF794FF034618460837BD4680BD80B431
:104CA00083B000AF78607B6893F83530DBB2022BBD
:104CB00004D07B6880225A6501230CE07B680522C2
:104CC00083F835207B681B681A687B681B6822F0B4
:104CD00001021A60002318460C37BD465DF8047BBC
:104CE000704780B483B000AF78607B6893F835304C
:104CF000DBB218460C37BD465DF8047B70470000F8
:104D000080B489B000AF7860396000237B610023F4
:104D10003B610023BB610023FB6165E10122FB696C
:104D200002FA03F37B613B681B687A6913403B61BD
:104D30003A697B699A4240F054813B685B6803F0B2
:104D40000303012B05D03B685B6803F00303022BD0
:104D500030D17B689B68BB61FB695B00032202FA70
:104D600003F3DB43BA691340BB613B68DA68FB6954
:104D70005B0002FA03F3BA691343BB617B68BA694B
:104D80009A607B685B68BB610122FB6902FA03F3EE
:104D9000DB43BA691340BB613B685B681B0903F0E6
:104DA0000102FB6902FA03F3BA691343BB617B6832
:104DB000BA695A603B685B6803F00303032B17D0A2
:104DC0007B68DB68BB61FB695B00032202FA03F3CB
:104DD000DB43BA691340BB613B689A68FB695B00BF
:104DE00002FA03F3BA691343BB617B68BA69DA60FC
:104DF0003B685B6803F00303022B23D1FB69DA08ED
:104E00007B68083253F82230BB61FB6903F007036B
:104E10009B000F2202FA03F3DB43BA691340BB6124
:104E20003B681A69FB6903F007039B0002FA03F36E
:104E3000BA691343BB61FB69DA087B680832B96958
:104E400043F822107B681B68BB61FB695B0003228F
:104E500002FA03F3DB43BA691340BB613B685B684A
:104E600003F00302FB695B0002FA03F3BA69134320
:104E7000BB617B68BA691A603B685B6803F44033C6
:104E8000002B00F0AE800023FB605D4B5B6C5C4A46
:104E900043F4804353645A4B5B6C03F48043FB60E0
:104EA000FB68584AFB699B08023352F82330BB6108
:104EB000FB6903F003039B000F2202FA03F3DB43B9
:104EC000BA691340BB617B684F4A934225D07B6827
:104ED0004E4A93421FD07B684D4A934219D07B685B
:104EE0004C4A934213D07B684B4A93420DD07B6867
:104EF0004A4A934207D07B68494A934201D106232C
:104F00000CE007230AE0052308E0042306E003235E
:104F100004E0022302E0012300E00023FA6902F02A
:104F2000030292009340BA691343BB613549FB69A0
:104F30009B080233BA6941F823203A4B9B68BB6156
:104F40003B69DB43BA691340BB613B685B6803F4B0
:104F50008013002B03D0BA693B691343BB61314A0C
:104F6000BB6993602F4BDB68BB613B69DB43BA696C
:104F70001340BB613B685B6803F40013002B03D054
:104F8000BA693B691343BB61264ABB69D360254BB1
:104F90005B68BB613B69DB43BA691340BB613B683B
:104FA0005B6803F40033002B03D0BA693B691343F9
:104FB000BB611C4ABB6953601A4B1B68BB613B69F0
:104FC000DB43BA691340BB613B685B6803F4803321
:104FD000002B03D0BA693B691343BB61114ABB691B
:104FE0001360FB690133FB61FB690F2B7FF696AE03
:104FF00000BF00BF2437BD465DF8047B704700BF8B
:105000000038024000380140000002400004024025
:1050100000080240000C0240001002400014024050
:1050200000180240003C014080B487B000AF7860B7
:10503000396000233B610023FB600023BB60002339
:105040007B61C7E001227B6902FA03F33B613A68A6
:105050003B691340FB60FA683B699A4240F0B780B5
:10506000624A7B699B08023352F82330BB607B693C
:1050700003F003039B000F2202FA03F3BA68134004
:10508000BB607B685A4A934225D07B68594A934259
:105090001FD07B68584A934219D07B68574A934285
:1050A00013D07B68564A93420DD07B68554A934291
:1050B00007D07B68544A934201D106230CE00723B2
:1050C0000AE0052308E0042306E0032304E00223AA
:1050D00002E0012300E000237A6902F0030292005B
:1050E0009340BA689A4232D1484B1A68FB68DB4356
:1050F000464913400B60454B5A68FB68DB43434904
:1051000013404B60414BDA68FB68DB433F49134077
:10511000CB603E4B9A68FB68DB433C4913408B6095
:105120007B6903F003039B000F2202FA03F3BB60C9
:105130002E4A7B699B08023352F82310BB68DA437E
:105140002A487B699B080A40023340F823207B6889
:105150001A687B695B00032101FA03F3DB431A4001
:105160007B681A607B69DA087B68083253F8221082
:105170007B6903F007039B000F2202FA03F3DB4372
:105180007A69D20819407B68083243F822107B689C
:10519000DA687B695B00032101FA03F3DB431A4001
:1051A0007B68DA607B685A6801217B6901FA03F346
:1051B000DB431A407B685A607B689A687B695B00B6
:1051C000032101FA03F3DB431A407B689A607B6991
:1051D00001337B617B690F2B7FF634AF00BF00BFCB
:1051E0001C37BD465DF8047B704700BF00380140A6
:1051F000000002400004024000080240000C02408F
:10520000001002400014024000180240003C01401F
:1052100080B483B000AF78600B467B8013467B7010
:105220007B78002B03D07A887B689A6103E07B88C7
:105230001A047B689A6100BF0C37BD465DF8047B99
:10524000704780B485B000AF78600B467B807B6888
:105250005B69FB607A88FB6813401A04FB68D943DA
:105260007B880B401A437B689A6100BF1437BD46A8
:105270005DF8047B7047000080B584B000AF7860B3
:105280007B68002B01D101232BE17B6893F83D3033
:10529000DBB2002B06D17B68002283F83C207868C3
:1052A000FEF700FD7B68242283F83D207B681B68A5
:1052B0001A687B681B6822F001021A607B681B6811
:1052C0001A687B681B6842F400421A607B681B689E
:1052D0001A687B681B6822F400421A6003F0E2F946
:1052E000F8607B685B68814A934207D8FB68804A14
:1052F000934294BF01230023DBB206E0FB687D4AA2
:10530000934294BF01230023DBB2002B01D0012381
:10531000E7E0FB68784AA2FB03239B0CBB607B6839
:105320001B685B6823F03F017B681B68BA680A430F
:105330005A607B681B681B6A23F03F017B685B68CF
:105340006A4A934202D8BB68013309E0BB684FF454
:10535000967202FB03F3694AA2FB03239B09013304
:105360007A6812680B4313627B681B68DB6923F45D
:105370004F4222F0FF027B685B685C498B4219D880
:10538000FB68591E7B685B685B00B1FBF3F3591C3B
:1053900040F6FC730B40002B0AD0FB68591E7B685B
:1053A0005B685B00B1FBF3F30133C3F30B0351E024
:1053B00004234FE07B689B68002B11D1FB68581ECB
:1053C0007B6859680B465B000B44B0FBF3F3013379
:1053D000C3F30B03002B0CBF01230023DBB212E04D
:1053E000FB68581E7B6859680B469B000B4499006C
:1053F0000B44B0FBF3F30133C3F30B03002B0CBFDF
:1054000001230023DBB2002B01D0012322E07B68C3
:105410009B68002B0ED1FB68581E7B6859680B46B1
:105420005B000B44B0FBF3F30133C3F30B0343F412
:1054300000430FE0FB68581E7B6859680B469B00D1
:105440000B4499000B44B0FBF3F30133C3F30B039C
:1054500043F44043796809681343CB617B681B6858
:105460001B6823F0C0017B68DA697B681B6A1A43FA
:105470007B681B680A431A607B681B689B6823F47F
:10548000034323F0FF037A6811697A68D2681143F5
:105490007A6812680B4393607B681B68DB6823F0B3
:1054A000FF017B685A697B689B691A437B681B68AC
:1054B0000A43DA607B681B681A687B681B6842F0E5
:1054C00001021A607B6800221A647B68202283F83C
:1054D0003D207B6800221A637B68002283F83E200F
:1054E000002318461037BD4680BD00BFA0860100CE
:1054F0007F841E00FF083D0083DE1B43D34D6210F6
:1055000080B582B000AF78607B68002B01D10123A9
:1055100021E07B68242283F83D207B681B681A68A1
:105520007B681B6822F001021A607868FEF770FC45
:105530007B6800221A647B68002283F83D207B6828
:1055400000221A637B68002283F83E207B680022D9
:1055500083F83C20002318460837BD4680BD000074
:1055600080B588B002AFF8607A601A460B467B813E
:1055700013463B81FFF720FA7861FB6893F83D30D2
:10558000DBB2202B40F0E0807B69009319230122DD
:105590007049F86802F096FB0346002B01D0022305
:1055A000D3E0FB6893F83C30012B01D10223CCE01F
:1055B000FB68012283F83C20FB681B681B6803F032
:1055C0000103012B07D0FB681B681A68FB681B6886
:1055D00042F001021A60FB681B681A68FB681B68CE
:1055E00022F400621A60FB68212283F83D20FB68E8
:1055F000102283F83E20FB6800221A64FB687A6858
:105600005A62FB683A895A85FB685B8D9AB2FB68DF
:105610001A85FB68504ADA6279897B693A6AF868C8
:1056200002F0A8F80346002B01D001238DE00023EF
:105630003B61FB681B685B693B61FB681B689B699E
:105640003B613B6966E07A69396AF86802F010FCF0
:105650000346002B0DD0FB681B6C042B07D1FB68A5
:105660001B681A68FB681B6842F400721A60012309
:105670006BE0FB685B6A1A78FB681B681A61FB6861
:105680005B6A5A1CFB685A62FB685B8D9BB2013BEC
:105690009AB2FB685A85FB681B8D013B9AB2FB6886
:1056A0001A85FB681B685B6903F00403042B1BD19C
:1056B000FB681B8D002B17D0FB685B6A1A78FB68B0
:1056C0001B681A61FB685B6A5A1CFB685A62FB68BC
:1056D0005B8D9BB2013B9AB2FB685A85FB681B8DC0
:1056E000013B9AB2FB681A857A69396AF86802F058
:1056F00000FC0346002B0DD0FB681B6C042B07D16C
:10570000FB681B681A68FB681B6842F400721A6029
:1057100001231AE0FB681B8D002B94D1FB681B68EA
:105720001A68FB681B6842F400721A60FB6820224A
:1057300083F83D20FB68002283F83E20FB680022AE
:1057400083F83C20002300E0022318461837BD46AA
:1057500080BD00BF020010000000FFFF80B588B0D0
:1057600002AFF860084611461A4603467B810B4695
:105770003B811346FB80FFF71FF97861FB6893F8C4
:105780003D30DBB2202B40F0D9807B690093192398
:1057900001226D49F86802F095FA0346002B01D00A
:1057A0000223CCE0FB6893F83C30012B01D10223AB
:1057B000C5E0FB68012283F83C20FB681B681B687E
:1057C00003F00103012B07D0FB681B681A68FB6814
:1057D0001B6842F001021A60FB681B681A68FB68CC
:1057E0001B6822F400621A60FB68212283F83D20C6
:1057F000FB68402283F83E20FB6800221A64FB68A5
:105800003A6A5A62FB68BA8C5A85FB685B8D9AB219
:10581000FB681A85FB684D4ADA62F8883A8979890B
:105820007B690193BB6A00930346F86802F024F891
:105830000346002B52D0012381E07A69B96AF868E7
:1058400002F016FB0346002B0DD0FB681B6C042BEB
:1058500007D1FB681B681A68FB681B6842F400727A
:105860001A6001236BE0FB685B6A1A78FB681B68AF
:105870001A61FB685B6A5A1CFB685A62FB681B8DE5
:10588000013B9AB2FB681A85FB685B8D9BB2013BBA
:105890009AB2FB685A85FB681B685B6903F00403D6
:1058A000042B1BD1FB681B8D002B17D0FB685B6A98
:1058B0001A78FB681B681A61FB685B6A5A1CFB68F4
:1058C0005A62FB681B8D013B9AB2FB681A85FB6824
:1058D0005B8D9BB2013B9AB2FB685A85FB681B8DBE
:1058E000002BAAD17A69B96AF86802F002FB034674
:1058F000002B0DD0FB681B6C042B07D1FB681B68C9
:105900001A68FB681B6842F400721A60012316E0F3
:10591000FB681B681A68FB681B6842F400721A6017
:10592000FB68202283F83D20FB68002283F83E209C
:10593000FB68002283F83C20002300E00223184685
:105940001837BD4680BD00BF020010000000FFFFF9
:1059500080B58CB002AFF860084611461A4603467F
:105960007B810B463B811346FB80FFF725F878626D
:10597000FB6893F83D30DBB2202B40F008827B6A55
:105980000093192301227B49F86802F09BF9034632
:10599000002B01D00223FBE1FB6893F83C30012B84
:1059A00001D10223F4E1FB68012283F83C20FB686B
:1059B0001B681B6803F00103012B07D0FB681B6801
:1059C0001A68FB681B6842F001021A60FB681B68DA
:1059D0001A68FB681B6822F400621A60FB682222C6
:1059E00083F83D20FB68402283F83E20FB680022BC
:1059F0001A64FB683A6B5A62FB68BA8E5A85FB6878
:105A00005B8D9AB2FB681A85FB685B4ADA62F8889C
:105A10003A8979897B6A0193BB6B00930346F868E6
:105A200001F0C0FF0346002B01D00123B0E1FB6869
:105A30001B8D002B13D100233B62FB681B685B6945
:105A40003B62FB681B689B693B623B6AFB681B68A7
:105A50001A68FB681B6842F400721A6084E1FB68F4
:105A60001B8D012B1BD1FB681B681A68FB681B6828
:105A700022F480621A600023FB61FB681B685B698B
:105A8000FB61FB681B689B69FB61FB69FB681B682A
:105A90001A68FB681B6842F400721A6064E1FB68D4
:105AA0001B8D022B1BD1FB681B681A68FB681B68E7
:105AB00022F480621A60FB681B681A68FB681B6826
:105AC00042F400621A600023BB61FB681B685B69DB
:105AD000BB61FB681B689B69BB61BB6944E1002338
