:020000040800F2
:100000000000022049530108294D01082F4D010825
:10001000354D01083B4D0108414D0108000000002D
:10002000000000000000000000000000474D010833
:10003000554D010800000000634D0108714D010895
:1000400099530108995301089953010899530108DC
:1000500099530108995301089953010899530108CC
:1000600099530108995301089953010899530108BC
:1000700099530108995301089953010899530108AC
:10008000995301089953010899530108995301089C
:10009000995301089953010899530108995301088C
:1000A000995301089953010899530108995301087C
:1000B0009953010899530108995301087D4D01088E
:1000C00099530108914D0108A54D01089953010864
:1000D000995301089953010899530108995301084C
:1000E000995301089953010899530108995301083C
:1000F000B94D010899530108995301089953010812
:10010000995301089953010899530108995301081B
:10011000995301089953010899530108995301080B
:1001200099530108995301089953010899530108FB
:1001300099530108000000000000000099530108D5
:1001400099530108995301089953010899530108DB
:1001500099530108995301089953010899530108CB
:1001600099530108995301089953010899530108BB
:1001700099530108CD4D0108995301080000000072
:10018000000000009953010800000000000000007A
:100190009953010800000000000000009953010875
:1001A000000000000000000000000000995301085A
:1001B000995301089953010899530108995301086B
:0401C0009953010846
:1001D00010B5054C237833B9044B13B10448AFF381
:1001E00000800123237010BDB8D40020000000005F
:1001F0002464020808B5034B1BB103490348AFF35D
:10020000008008BD00000000BCD400202464020867
:1002100001F0FF01102A2BDB10F0070F08D010F8B7
:10022000013B013A8B422DD010F0070F42B3F6D1BB
:10023000F0B441EA012141EA014122F007047FF0D4
:1002400000070023F0E80256083C85EA010586EA2B
:10025000010685FA47F5A3FA87F586FA47F6A5FA67
:1002600087F68EB9EED1F0BC01F0FF0102F0070273
:1002700032B110F8013B013A83EA010313B1F8D11E
:100280000020704701387047002D06BF35460338FF
:10029000073815F0010F07D1013015F4807F02BF38
:1002A000013015F4C03F0130F0BC0138704700BF89
:1002B000034613F8012B002AFBD1181A01387047A6
:1002C00081F0004102E000BF83F0004330B54FEA07
:1002D00041044FEA430594EA050F08BF90EA020F74
:1002E0001FBF54EA000C55EA020C7FEA645C7FEA07
:1002F000655C00F0E2804FEA5454D4EB5555B8BF2A
:100300006D420CDD2C4480EA020281EA030382EA9A
:10031000000083EA010180EA020281EA0303362D2C
:1003200088BF30BD11F0004F4FEA01314FF4801CFF
:100330004CEA113102D0404261EB410113F0004F11
:100340004FEA03334CEA133302D0524263EB4303C8
:1003500094EA050F00F0A780A4F10104D5F1200E66
:100360000DDB02FA0EFC22FA05F2801841F10001C1
:1003700003FA0EF2801843FA05F359410EE0A5F195
:1003800020050EF1200E012A03FA0EFC28BF4CF0C6
:10039000020C43FA05F3C01851EBE37101F000457C
:1003A00007D54FF0000EDCF1000C7EEB00006EEB89
:1003B0000101B1F5801F1BD3B1F5001F0CD3490813
:1003C0005FEA30004FEA3C0C04F101044FEA44526A
:1003D00012F5800F80F09A80BCF1004F08BF5FEAF1
:1003E000500C50F1000041EB045141EA050130BDD1
:1003F0005FEA4C0C404141EB0101013C28BFB1F5E3
:10040000801FE9D291F0000F04BF01460020B1FA2D
:1004100081F308BF2033A3F10B03B3F120020CDA00
:100420000C3208DD02F1140CC2F10C0201FA0CF0DE
:1004300021FA02F10CE002F11402D8BFC2F1200C43
:1004400001FA02F120FA0CFCDCBF41EA0C019040F9
:10045000E41AA2BF01EB0451294330BD6FEA040442
:100460001F3C1CDA0C340EDC04F11404C4F120022D
:1004700020FA04F001FA02F340EA030021FA04F33F
:1004800045EA030130BDC4F10C04C4F1200220FA96
:1004900002F001FA04F340EA0300294630BD21FAD4
:1004A00004F0294630BD94F0000F83F4801306BF9A
:1004B00081F480110134013D4EE77FEA645C18BF8E
:1004C0007FEA655C29D094EA050F08BF90EA020F25
:1004D00005D054EA000C04BF1946104630BD91EA1D
:1004E000030F1EBF0021002030BD5FEA545C05D120
:1004F0004000494128BF41F0004130BD14F580045F
:100500003CBF01F5801130BD01F0004545F0FE41D2
:1005100041F470014FF0000030BD7FEA645C1ABF07
:10052000194610467FEA655C1CBF0B46024650EA3E
:10053000013406BF52EA033591EA030F41F400216A
:1005400030BD00BF90F0000F04BF0021704730B5F0
:100550004FF4806404F132044FF000054FF00001C5
:1005600050E700BF90F0000F04BF0021704730B586
:100570004FF4806404F1320410F0004548BF40425B
:100580004FF000013EE700BF42004FEAE2014FEAB0
:1005900031014FEA02701FBF12F07F4393F07F4F8B
:1005A00081F06051704732F07F4208BF704793F08E
:1005B0007F4F04BF41F40021704730B54FF46074A1
:1005C00001F0004521F000411CE700BF50EA0102A4
:1005D00008BF704730B54FF000050AE050EA01024D
:1005E00008BF704730B511F0004502D5404261EBBD
:1005F00041014FF4806404F132045FEA915C3FF4FE
:10060000D8AE4FF003025FEADC0C18BF03325FEA9A
:10061000DC0C18BF033202EBDC02C2F1200300FA4B
:1006200003FC20FA02F001FA03FE40EA0E0021FA70
:1006300002F11444BDE600BF70B54FF0FF0C4CF45E
:10064000E06C1CEA11541DBF1CEA135594EA0C0F10
:1006500095EA0C0F00F0DEF82C4481EA030621EA4B
:100660004C5123EA4C5350EA013518BF52EA033586
:1006700041F4801143F4801338D0A0FB02CE4FF038
:100680000005E1FB02E506F00042E0FB03E54FF068
:100690000006E1FB03569CF0000F18BF4EF0010E60
:1006A000A4F1FF04B6F5007F64F5407404D25FEA5C
:1006B0004E0E6D4146EB060642EAC62141EA55510F
:1006C0004FEAC52040EA5E504FEACE2EB4F1FD0C51
:1006D00088BFBCF5E06F1ED8BEF1004F08BF5FEACF
:1006E000500E50F1000041EB045170BD06F0004681
:1006F00046EA010140EA020081EA0301B4EB5C042E
:10070000C2BFD4EB0C0541EA045170BD41F4801125
:100710004FF0000E013C00F3AB8014F1360FDEBF4A
:10072000002001F0004170BDC4F10004203C35DA26
:100730000C341BDC04F11404C4F1200500FA05F3A9
:1007400020FA04F001FA05F240EA020001F000424A
:1007500021F0004110EBD37021FA04F642EB0601C0
:100760005EEA430E08BF20EAD37070BDC4F10C04EA
:10077000C4F1200500FA04F320FA05F001FA04F2AE
:1007800040EA020001F0004110EBD37041F100019A
:100790005EEA430E08BF20EAD37070BDC4F12005A5
:1007A00000FA05F24EEA020E20FA04F301FA05F20D
:1007B00043EA020321FA04F001F0004121FA04F2B5
:1007C00020EA020000EBD3705EEA430E08BF20EA85
:1007D000D37070BD94F0000F0FD101F000464000BF
:1007E00041EB010111F4801F08BF013CF7D041EA41
:1007F000060195F0000F18BF704703F00046520045
:1008000043EB030313F4801F08BF013DF7D043EA15
:100810000603704794EA0C0F0CEA135518BF95EACB
:100820000C0F0CD050EA410618BF52EA4306D1D152
:1008300081EA030101F000414FF0000070BD50EA71
:10084000410606BF1046194652EA430619D094EAFB
:100850000C0F02D150EA013613D195EA0C0F05D1E5
:1008600052EA03361CBF104619460AD181EA030139
:1008700001F0004141F0FE4141F470014FF00000F1
:1008800070BD41F0FE4141F4780170BD70B54FF08C
:10089000FF0C4CF4E06C1CEA11541DBF1CEA13550C
:1008A00094EA0C0F95EA0C0F00F0A7F8A4EB0504EE
:1008B00081EA030E52EA03354FEA013100F08880E5
:1008C0004FEA03334FF0805545EA131343EA1263AE
:1008D0004FEA022245EA111545EA10654FEA002663
:1008E0000EF000419D4208BF964244F1FD0404F51C
:1008F000407402D25B084FEA3202B61A65EB030578
:100900005B084FEA32024FF480104FF4002CB6EB34
:10091000020E75EB030E22BFB61A754640EA0C00B4
:100920005B084FEA3202B6EB020E75EB030E22BFF4
:10093000B61A754640EA5C005B084FEA3202B6EB35
:10094000020E75EB030E22BFB61A754640EA9C00F4
:100950005B084FEA3202B6EB020E75EB030E22BFC4
:10096000B61A754640EADC0055EA060E18D04FEA82
:10097000051545EA16754FEA06164FEAC30343EA22
:1009800052734FEAC2025FEA1C1CC0D111F4801FEF
:100990000BD141EA00014FF000004FF0004CB6E7E8
:1009A00011F4801F04BF01430020B4F1FD0C88BF87
:1009B000BCF5E06F3FF6AFAEB5EB030C04BFB6EB92
:1009C000020C5FEA500C50F1000041EB045170BD85
:1009D0000EF0004E4EEA113114EB5C04C2BFD4EBB2
:1009E0000C0541EA045170BD41F480114FF0000E36
:1009F000013C90E645EA060E8DE60CEA135594EAB2
:100A00000C0F08BF95EA0C0F3FF43BAF94EA0C0FB4
:100A10000AD150EA01347FF434AF95EA0C0F7FF429
:100A200025AF104619462CE795EA0C0F06D152EA7D
:100A300003353FF4FDAE1046194622E750EA410661
:100A400018BF52EA43067FF4C5AE50EA41047FF472
:100A50000DAF52EA43057FF4EBAE12E74FF0FF3CD7
:100A600006E000BF4FF0010C02E000BF4FF0010CA8
:100A70004DF804CD4FEA410C7FEA6C5C4FEA430C21
:100A800018BF7FEA6C5C1BD001B050EA410C0CBF70
:100A900052EA430C91EA030F02BF90EA020F0020D2
:100AA000704710F1000F91EA030F58BF994208BF39
:100AB00090422CBFD8176FEAE37040F001007047F6
:100AC0004FEA410C7FEA6C5C02D150EA013C07D14D
:100AD0004FEA430C7FEA6C5CD6D152EA033CD3D098
:100AE0005DF8040B704700BF8446104662468C4692
:100AF0001946634600E000BF01B5FFF7B7FF0028C5
:100B000048BF10F1000F01BD4DF808EDFFF7F4FFED
:100B10000CBF012000205DF808FB00BF4DF808ED78
:100B2000FFF7EAFF34BF012000205DF808FB00BF9B
:100B30004DF808EDFFF7E0FF94BF012000205DF8BD
:100B400008FB00BF4DF808EDFFF7CEFF94BF012072
:100B500000205DF808FB00BF4DF808EDFFF7C4FF6B
:100B600034BF012000205DF808FB00BF4FEA410CB4
:100B70007FEA6C5C02D150EA013C0AD14FEA430C97
:100B80007FEA6C5C02D152EA033C02D14FF00000D4
:100B900070474FF0010070474FEA410212F5001212
:100BA00015D211D56FF47873B3EB625212D94FEAB4
:100BB000C12343F0004343EA505311F0004F23FA9E
:100BC00002F018BF404270474FF00000704750EAF3
:100BD000013005D111F0004008BF6FF000407047B0
:100BE0004FF00000704700BF80F0004002E000BFFF
:100BF00081F0004142001FBF5FEA410392EA030F08
:100C00007FEA226C7FEA236C6AD04FEA1262D2EB51
:100C10001363C1BFD218414048404140B8BF5B4256
:100C2000192B88BF704710F0004F40F4000020F0EF
:100C30007F4018BF404211F0004F41F4000121F005
:100C40007F4118BF494292EA030F3FD0A2F101024F
:100C500041FA03FC10EB0C00C3F1200301FA03F18D
:100C600000F0004302D5494260EB4000B0F5000FB0
:100C700013D3B0F1807F06D340084FEA310102F16F
:100C80000102FE2A51D2B1F1004F40EBC25008BF21
:100C900020F0010040EA03007047490040EB0000EB
:100CA000013A28BFB0F5000FEDD2B0FA80FCACF1EC
:100CB000080CB2EB0C0200FA0CF0AABF00EBC25019
:100CC00052421843BCBFD0401843704792F0000F07
:100CD00081F4000106BF80F400000132013BB5E75A
:100CE0004FEA41037FEA226C18BF7FEA236C21D0D0
:100CF00092EA030F04D092F0000F08BF0846704735
:100D000090EA010F1CBF0020704712F07F4F04D102
:100D1000400028BF40F00040704712F100723CBF15
:100D200000F50000704700F0004343F0FE4040F43F
:100D3000000070477FEA226216BF08467FEA2363FD
:100D40000146420206BF5FEA412390EA010F40F4E8
:100D5000800070474FF0000304E000BF10F0004334
:100D600048BF40425FEA000C08BF704743F096431B
:100D700001464FF000001CE050EA010208BF704736
:100D80004FF000030AE000BF50EA010208BF7047BD
:100D900011F0004302D5404261EB41015FEA010CD2
:100DA00002BF84460146002043F0B64308BFA3F1CA
:100DB0008053A3F50003BCFA8CF2083AA3EBC253AC
:100DC00010DB01FA02FC634400FA02FCC2F12002CB
:100DD000BCF1004F20FA02F243EB020008BF20F002
:100DE0000100704702F1200201FA02FCC2F1200268
:100DF00050EA4C0021FA02F243EB020008BF20EA5D
:100E0000DC70704753B94AB9002908BF00281CBFDD
:100E10004FF0FF314FF0FF3000F070B9ADF1080C2A
:100E20006DE904CE00F006F8DDF804E0DDE9022308
:100E300004B070472DE9F047089E0D4604460F4662
:100E4000002B4AD18A42944665D9B2FA82F343B163
:100E500002FA03FCC3F120029F4020FA02F217437A
:100E60009C404FEA1C4E1FFA8CF5B7FBFEF1220C9A
:100E70000EFB117742EA074201FB05F090420AD9C6
:100E80001CEB020201F1FF3780F01C81904240F21E
:100E9000198102396244121AA4B2B2FBFEF00EFBB1
:100EA000102244EA024400FB05F5A5420AD91CEBD6
:100EB000040400F1FF3280F00781A54240F2048172
:100EC0006444023840EA0140641B00211EB1DC404A
:100ED0000023C6E90043BDE8F0878B4208D9002E05
:100EE00000F0ED800021C6E900050846BDE8F08766
:100EF000B3FA83F1002949D1AB4202D3824200F216
:100F0000F880841A65EB030201201746002EE2D018
:100F1000C6E90047DFE702B9FFDEB2FA82F3002B31
:100F200040F090808A1A4FEA1C471FFA8CFE01217C
:100F3000B2FBF7F507FB1520220C42EA00420EFB3C
:100F400005F0904208D91CEB020205F1FF3802D2ED
:100F5000904200F2CB804546121AA4B2B2FBF7F0E1
:100F600007FB102244EA02440EFB00FEA64508D906
:100F70001CEB040400F1FF3202D2A64500F2BB8054
:100F80001046A4EB0E0440EA05409FE7C1F120079C
:100F90008B4022FA07FC4CEA030C05FA01F420FA14
:100FA00007F3FD404FEA1C492343B5FBF9F81FFA4C
:100FB0008CFE09FB18551C0C44EA054408FB0EF591
:100FC000A54202FA01F200FA01F00BD91CEB04046D
:100FD00008F1FF3A80F08880A54240F28580A8F1B0
:100FE00002086444641B9DB2B4FBF9F309FB13448B
:100FF00045EA044403FB0EFEA64508D91CEB040495
:1010000003F1FF356CD2A6456AD9023B644443EA3A
:101010000843A3FB0295A4EB0E04AC42C846AE46BF
:1010200056D353D056B1B0EB080264EB0E0404FA69
:1010300007F7CA40CC401743C6E9007418460021A0
:10104000BDE8F087C3F1200102FA03FC20FA01F2A7
:1010500025FA01F19D402A434FEA1C471FFA8CFEF6
:10106000B1FBF7F007FB1015110C41EA054100FB3D
:101070000EF58D4204FA03F408D91CEB010100F1CE
:10108000FF382FD28D422DD902386144491B92B2CC
:10109000B1FBF7F507FB151142EA014205FB0EF122
:1010A000914208D91CEB020205F1FF3816D2914299
:1010B00014D9023D6244521A45EA004138E73146EC
:1010C000304608E73946E6E61046FBE64845A9D231
:1010D000B9EB020865EB0C0E013BA3E74546EAE7D6
:1010E0002B4694E74046D1E7D0467BE7023D624479
:1010F00032E708460AE76444023842E7704700BF17
:1011000080B48FB000AFF860B9607A603B600023B4
:101110003B6100233B753B687B637A6B3B6C1344FC
:101120007B62BB683B623A6A7B681344FB61BB68C5
:101130003B633B6B0133FB620023FB76012387F8A3
:101140002B30BB68002B02D03B68002B0AD1012357
:101150003B75FB681A4607F1100393E8030082E829
:10116000030066E03B6C002B40D0FA6AFB699A42B0
:1011700005D33B7D43F00203DBB23B7536E07B6B6E
:101180005A1C7A631B78FB76FB7E002B0FD13B6BDE
:1011900097F82B201A70FB6A5A1CFA623B630123F2
:1011A00087F82B307A6B7B6A9A42DED31EE0FB6AAB
:1011B0005A1CFA62FA7E1A7097F82B30013387F8BE
:1011C0002B307A6B7B6A9A420FD297F82B30FF2B29
:1011D000CBD13B6B97F82B201A70FB6A5A1CFA6232
:1011E0003B63012387F82B30BFE700BF3A6BFB69F5
:1011F0009A4207D33B7D43F00203DBB23B75FB69A8
:10120000FB620AE03B6B97F82B201A70FB6A5A1CB2
:10121000FA623B633B6B00221A70FA6A3B6AD31A8C
:101220003B61FB681A4607F1100393E8030082E86C
:101230000300F8683C37BD465DF8047B704780B416
:101240008FB000AF78607B681A897B681B681B8A47
:101250009A4201D3002356E17B681B681A687B68B9
:101260005B899B0013441B68FB62FB6A1B0ADAB2B2
:101270007B689A75FB6A03F00303022B5AD0022B9A
:1012800000F29480002B02D0012B1FD08EE07B68EF
:1012900001229A82FB6A9B089BB203F03F039AB239
:1012A0007B681A82FB6A1B0E5BB203F00F0387F8A0
:1012B0003330FB6A1B0CDBB27B63FB6A1B0F9BB2F8
:1012C00003F00F039AB27B685A82B4E07B681B6814
:1012D0001A687B685B8901339B0013441B68FB61C0
:1012E000FB6A1B0C9BB2C3F30B039AB27B689A8216
:1012F000FB6A9B089BB203F03F039AB2FB691B0F8A
:101300009BB29B019BB213439AB27B681A82FB6A21
:101310001B0F5BB203F00F0387F83330FB699BB2FE
:101320007B63FB691B0C9BB2C3F30B039AB27B6814
:101330005A8280E07B681B681A687B685B8901338E
:101340009B0013441B68BB627B681B681A687B6840
:101350005B8902339B0013441B687B627B681B68BC
:101360001A687B685B8903339B0013441B683B62EC
:10137000FB6A1B0C9AB27B689A82FB6A9B089BB241
:1013800003F03F039AB2BB6A1B0A9BB29B019BB25C
:1013900013439AB27B681A82BB6A87F833307B6A40
:1013A0007B633B6A9AB27B685A8244E07B681B6825
:1013B0001A687B685B8901339B0013441B68BB611F
:1013C0007B681B681A687B685B8902339B00134447
:1013D0001B687B617B681B681A687B685B890333C9
:1013E0009B0013441B683B617B681B681A687B6821
:1013F0005B8904339B0013441B68FB60FB689AB253
:101400007B689A82FB6A9B089BB203F03F039AB207
:10141000BB691B0A9BB29B019BB213439AB27B68C8
:101420001A82BB6987F833307B697B633B699AB268
:101430007B685A8200BF7B685B68002B06D17B68A3
:1014400000229A617B6800221A6241E07B685A6838
:101450007B6B1A447B689A6197F93330002B08D074
:101460007B689A6997F933305B421A447B681A6249
:101470001AE07B689B7D03F03003202B11D17B6841
:101480009B7D03F0C003002B05D07B689B7D03F0A0
:10149000C003802B05D17B6803F114027B681A62BC
:1014A00002E07B6800221A627B689B7D03F0C00328
:1014B000802B09D17B689B69002B05D07B689B69D9
:1014C0001A687B68DA6103E07B689A697B68DA6195
:1014D0007B689B7D03F00F03082B05D07B689B7D09
:1014E00003F00F03092B0AD17B681B685A687B68DD
:1014F000DB899B0013441A687B685A6202E07B68B0
:1015000000225A62012318463C37BD465DF8047B31
:10151000704780B485B000AF78607B681B89013369
:101520009AB27B681A817B681A897B681B681B8A60
:101530009A420CD37B6800221A817B6800225A8170
:101540007B680022DA817B6800229A813CE07B681C
:101550001B681A687B685B899B0013441B68FB60EF
:10156000FB681B0AFB72FB6803F00303012202FA0B
:1015700003F33B817B685A893B8913449AB27B68A9
:101580005A817B689A89FB7A03F03003002B0CBFE9
:1015900001230023DBB29BB213449AB27B689A8189
:1015A0007B68DA89FB7A03F00F03082B04D0FB7AFF
:1015B00003F00F03092B01D1012300E000239BB2AC
:1015C00013449AB27B68DA8100BF1437BD465DF8D8
:1015D000047B704780B584B000AFF860B9607A6072
:1015E00028220021F86821F0D7FCFB68BA681A604D
:1015F000FB687A685A60F868FFF721FE03461846D0
:101600001037BD4680BD80B586B000AF78603960C8
:101610003B681B689B683B613B691B681B68FB6000
:10162000FB681B0A03F0C003802B09D13B6804331D
:101630001A4639697868FFF7CDFF0346FB7508E065
:101640003B685B681A4639697868FFF7C3FF034651
:10165000FB753B6803F10C027B681A62FB7D184640
:101660001837BD4680BD80B582B000AF786078681D
:10167000FFF74FFF7868FFF7E2FD7B681B89002BBF
:1016800014BF01230023DBB218460837BD4680BDD6
:1016900080B485B000AF78607B68FB60FB6818465B
:1016A0001437BD465DF8047B704780B584B000AF49
:1016B000F860B9607A607868FFF7EAFF03461A4677
:1016C000B968F868FFF786FF034618461037BD462D
:1016D00080BD80B582B000AF786039603868FFF7B0
:1016E000D7FF034619467868FFF78DFF0346184673
:1016F0000837BD4680BD80B586B000AFF860B960E0
:101700007A607B685B8A082B25D17B68DB697B610B
:101710007B69002B1FD0FB68002B0CD07B691B68FA
:10172000002B08D07B691B687A6904327968F868F5
:101730009847034610E0BB68002B0CD07B691B6800
:10174000002B08D07B691B687A6904327968B86815
:101750009847034600E0012318461837BD4680BD70
:1017600080B586B000AFF860B9607A60FB685B68EE
:101770007B617A697B681A44FB685A607A68B96849
:10178000786921F088FC012318461837BD4680BDD2
:10179000B0B48BB000AFF860B9607A600B4B7B617E
:1017A000BB68BB617B68FB6100233B6200237B62FB
:1017B000FB681D4607F114040FCC0FC523682B608E
:1017C000F8682C37BD46B0BC704700BF61170008F1
:1017D00080B584B000AFF860B9607A607B68002B98
:1017E00037D0FB681B68002B33D0FB68DA687B6856
:1017F0001A44FB68DB689A4207D3FB68DA687B68A7
:101800001A44FB689B689A420BD9FB681B69002B42
:1018100002D0FB681B6900E0134BFA6813610023D8
:101820001EE0FB681B687A68B968F8689847034649
:1018300083F00103DBB2002B0BD0FB681B69002B8C
:1018400002D0FB681B6900E0084BFA6813610023B3
:1018500006E0FB68DA687B681A44FB68DA600123FB
:1018600018461037BD4680BD406402084C6402082B
:1018700080B485B000AF78607B68BB600023FB60FC
:101880000AE0BA68FB6813441B78002B01D00123DF
:1018900006E0FB680133FB60FB68002BF1D00023FE
:1018A00018461437BD465DF8047B7047B0B58CB060
:1018B00000AF786039603B681B6A1B88BB84BB8CB7
:1018C000002B01D101233DE13B689B7D03F0C00368
:1018D000802B10D03B689B8ABA8C9A420BD97B68CC
:1018E0001B69002B02D07B681B6900E0974B7A686C
:1018F0001361002326E13B689B7D03F00F03052B5A
:1019000000F2B3803B681B8A1A460221786800F017
:10191000DDFC034683F00103DBB2002B01D0002382
:1019200010E13B689B7D03F00F03042B03D1BB8CBC
:101930009B00BB6247E03B689B7D03F00F03052BD8
:1019400003D1BB8CDB00BB623DE007F10803002242
:101950001A605A609A60DA601A613B68DB69FB6161
:101960000023FB8526E007F108033968184600F0DC
:10197000EFFD034683F00103DBB2002B10D07B6840
:101980001B69002B02D07B681B6905E0BB69002B3B
:1019900001D0BB6900E06E4B7A6813610023D1E08F
:1019A0003B68DB693A68528A1A443B68DA61FB8D0E
:1019B0000133FB85FA8DBB8C9A42D4D33B68FA691C
:1019C000DA617B69BB62BB6A00221C46154622466F
:1019D0002B46786800F0F7FB034683F00103DBB287
:1019E000002B01D00023ADE07B681B68002B06D1E3
:1019F000BA6A00217868FFF7EBFE0346A2E00023F5
:101A0000FB852DE03B689B7D03F00F03042B05D085
:101A10003B689B7D03F00F03052B0BD13968786879
:101A200000F058FE034683F00103DBB2002B0DD01B
:101A3000002387E03968786800F08AFD034683F068
:101A40000103DBB2002B01D000237BE03B68DB69A4
:101A50003A68528A1A443B68DA61FB8D0133FB8590
:101A6000FA8DBB8C9A42CDD36BE00023FB8564E0FA
:101A70003B689B7D03F0C003802B47D13B689B7D77
:101A800003F00F03072B05D03B689B7D03F00F038A
:101A9000062B3BD13B68DB693B623B68DB691A681C
:101AA0003B68DA613B68DB69002B1CD139687868D8
:101AB00000F036FC0346002B0BD04FF000024FF035
:101AC0000003786800F07FFB0346002B01D0012360
:101AD00000E0002387F8273097F8273003F0010350
:101AE00087F8273006E03968786800F051F9034636
:101AF00087F827303B683A6ADA6197F8273083F035
:101B00000103DBB2002B0DD000231BE0396878689D
:101B100000F03EF9034683F00103DBB2002B02D054
:101B200000230FE000BF3B68DB693A68528A1A4421
:101B30003B68DA61FB8D0133FB85FA8DBB8C9A42E1
:101B400096D3012318463037BD46B0BD586402080D
:101B50007064020880B592B000AF78607B689B7DAE
:101B600087F8453097F8453003F0C003002B40F06C
:101B7000C98097F8453003F03003002B01D10023D2
:101B800000E197F8453003F03003202B08D17B6843
:101B90001B6A1B88002B0CBF01230023DBB2F1E082
:101BA00097F8453003F03003302B08D17B681B6A6F
:101BB0001B88002B0CBF01230023DBB2E2E097F867
:101BC000453003F03003102B15D17B681B6A002BC6
:101BD00011D07B681B6A1846FFF74AFE0346002BAC
:101BE00014BF01230023DBB283F00103DBB203F057
:101BF0000103DBB2C6E07B681B689B68002B01D049
:101C00000023BFE097F8453003F00F03052B1CD8E5
:101C10007B68DB697B630023A7F846300DE0B7F8EB
:101C200046307A6B13441B78002B01D00023A9E0C7
:101C3000B7F846300133A7F846307B685B8AB7F8BF
:101C400046209A42EBD301239CE097F8453003F0FD
:101C50000F03062B0AD17B68DB69BB63BB6B1B8858
:101C6000002B0CBF01230023DBB28BE097F845303B
:101C700003F00F03072B08D17B68DB691B78002B6F
:101C80000CBF01230023DBB27CE097F8453003F062
:101C90000F030B2B07D17B685B8A002B0CBF012342
:101CA0000023DBB26EE097F8453003F00F03082BFA
:101CB00005D097F8453003F00F03092B61D17B68FD
:101CC000596A7B68DA6907F10C031846FFF782FC52
:101CD0000346002B14D007F10C031846FFF73AFF18
:101CE000034683F00103DBB2002B01D0002349E05F
:101CF00007F10C031846FFF7B6FC0346002BEAD1A8
:101D000001233FE097F8453003F0C003802B07D153
:101D10007B68DB69002B0CBF01230023DBB231E0C1
:101D200097F8453003F0C003402B2AD197F845308F
:101D300003F00F030A2B0AD17B68DB691B68FB6386
:101D4000FB6B002B0CBF01230023DBB21AE07B6886
:101D50001B68DB680D4A93420AD17B68DB693B64F0
:101D60003B6C1B68002B0CBF01230023DBB209E096
:101D70007B681B68DB68002B0CBF01230023DBB2F0
:101D800000E0002318464837BD4680BDF71600081E
:101D900080B582B000AF786039603B68DB69002BAA
:101DA00001D1012361E03968786800F0B9FA03468F
:101DB00083F00103DBB2002B01D0002355E03B6828
:101DC0009B7D03F00F030B2B44D801A252F823F0A4
:101DD000011E00080D1E00080D1E00080D1E000843
:101DE000191E0008191E0008251E0008311E0008D3
:101DF0003D1E00083D1E0008551E0008491E000833
:101E00003968786800F08AFB03462EE03968786804
:101E100000F09EFB034628E03968786800F05AFC21
:101E2000034622E03968786800F082FC03461CE033
:101E30003968786800F0BAFC034616E039687868BB
:101E400000F012FD034610E03968786800F052FD9A
:101E500003460AE07B681B69002B02D07B681B6984
:101E600000E0044B7A681361002318460837BD462A
:101E700080BD00BF7864020880B582B000AF786092
:101E800039603B681B68DB68002B18D03B681B6817
:101E9000DB683A68796800209847034683F00103BD
:101EA000DBB2002B0BD07B681B69002B02D07B6858
:101EB0001B6900E0044B7A681361002300E00123F2
:101EC00018460837BD4680BD8C64020880B582B0D4
:101ED00000AF786039603B689B7D03F03003302BA6
:101EE00008D13B681B6A1A883B681B8A9A4226D035
:101EF000012359E03B689B7D03F03003102B1ED17A
:101F00003B681B6A002B0CD03B681B6A1846FFF726
:101F1000AFFC034683F00103DBB2002B0FD001239B
:101F200042E03B689B7D03F0C003002B07D138687B
:101F3000FFF710FE0346002B01D0012334E03B687D
:101F4000DB69002B13D13B689B7D03F03003002B32
:101F50000BD17B681B69002B02D07B681B6900E0FA
:101F6000134B7A68136100231EE001231CE03B68D9
:101F70009B7D03F0C003402B05D139687868FFF7DB
:101F80007BFF034610E03B689B7D03F03003202B72
:101F900005D139687868FFF789FC034604E03968A1
:101FA0007868FFF7F5FE034618460837BD4680BD42
:101FB0009C64020880B58CB000AF7860396007F18E
:101FC000080339681846FFF784FB034683F00103D2
:101FD000DBB2002B0BD07B681B69002B02D07B6827
:101FE0001B6900E0074B7A681361002306E007F1E4
:101FF000080319467868FFF769FF0346184630372B
:10200000BD4680BDB464020880B584B000AF78607E
:1020100039603B68DB691B68FB601EE0FB681B687E
:102020005B68002B08D0FB681B685B68F968786800
:1020300098470346FB7205E0F9687868FFF7BAFF36
:102040000346FB72FB7A83F00103DBB2002B01D065
:10205000002306E0FB689B68FB60FB68002BDDD17A
:10206000012318461037BD4680BD80B58EB000AF45
:10207000F860B9607A6007F110037A68B9681846A9
:10208000FFF713FB034683F00103DBB2002B01D003
:1020900001232AE097F8263003F00F030A2B0DD115
:1020A00007F110031946F868FFF7AEFF034683F007
:1020B0000103DBB2002B0FD0002316E007F1100361
:1020C0001946F868FFF702FF034683F00103DBB20D
:1020D000002B01D0002308E007F110031846FFF79A
:1020E000C2FA0346002BD5D1012318463837BD4626
:1020F00080BD80B588B000AFF860B9607A60002319
:10210000FB61BB68DBB203F07F03FB76BB68DB09D6
:10211000BB6013E0FB7E63F07F03FB76FB695A1C18
:10212000FA6120333B44FA7E03F8102CBB68DBB223
:1021300003F07F03FB76BB68DB09BB60FB69032B05
:1021400005D8BB68002BE5D17B68002BE2D17B680A
:10215000002B24D07B68DBB21B01DBB203F07003E1
:10216000DAB2FB7E1343FB767B68DB087B6013E00F
:10217000FB7E63F07F03FB76FB695A1CFA61203318
:102180003B44FA7E03F8102C7B68DBB203F07F033C
:10219000FB767B68DB097B607B68002BE8D1FB6901
:1021A0005A1CFA6120333B44FA7E03F8102C07F1E5
:1021B0001003FA691946F868FFF70AFB0346184648
:1021C0002037BD4680BD90B587B000AFF860C7E945
:1021D0000023D7E90023802A73F100030AD23B7859
:1021E000FB7507F1170301221946F868FFF7F0FAAB
:1021F00003460FE03C68D7E900014FF000024FF0C2
:1022000000030A00002313461A462146F868FFF728
:1022100070FF034618461C37BD4690BD2DE9B04FF0
:102220008AB000AF7861C7E902234FF0FF326FF048
:102230000043C7E90623D7E90223002B15DAD7E9C3
:102240000201D7E9062300EA020401EA0305231983
:102250003B6045EB05037B60D7E900236FEA020A88
:102260006FEA030BC7E908AB07E0D7E9022312EBDB
:10227000020843EB0309C7E90889D7E9082378690D
:10228000FFF7A1FF034618462837BD46BDE8B08FCB
:1022900080B582B000AF7860396004223968786810
:1022A000FFF796FA034618460837BD4680BD80B54D
:1022B00082B000AF78603960082239687868FFF72B
:1022C00087FA034618460837BD4680BD2DE9B04F52
:1022D00088B000AF78610B46FA60FB74FB6800229F
:1022E0009A4693464FEA5A754FEACA04FB7C00228D
:1022F0009846914644EA08033B6045EA09037B603F
:10230000D7E90034C7E90634D7E906237869FFF72F
:102310005AFF034618462037BD46BDE8B08F00007F
:1023200080B584B000AF786039603B689B7D03F076
:102330000F030B2B26D801A252F823F06D230008BF
:102340006D2300086D2300086D2300087323000827
:10235000792300087F2300087F2300087F230008DB
:102360007F230008852300087F2300080023FB73D8
:1023700014E00523FB7311E00123FB730EE002233D
:10238000FB730BE07B681B69002B02D07B681B6929
:1023900000E0094B7A681361002308E03B681B8A60
:1023A0001A46FB7B19467868FFF790FF03461846EC
:1023B0001037BD4680BD00BF78640208B0B584B058
:1023C00000AFF860B9607A607B6800221C46154651
:1023D00022462B46F868FFF7F6FE034683F001031A
:1023E000DBB2002B01D0002305E07A68B968F868F9
:1023F000FFF7EEF9034618461037BD46B0BD0000A2
:10240000B0B58CB000AFF860B9607A6007F1140322
:1024100000221A605A609A60DA601A6107F11403A8
:102420007A68B9681846FFF720FE034683F0010377
:10243000DBB2002B04D07A6AFB681A61002365E0E6
:102440003B6AFB62FB6A00221C46154622462B466D
:10245000F868FFF7B8FE034683F00103DBB2002BF8
:1024600001D0002352E0FB681B68002B06D1FA6AFA
:102470000021F868FFF7ACF9034647E0FB68DA682B
:10248000FB6A1A44FB689B689A420BD9FB681B697C
:10249000002B02D0FB681B6900E01E4BFA68136139
:1024A000002333E0FB681B687B61FB685B68BB61F2
:1024B000FB6AFB6100233B6200237B6207F114038C
:1024C0007A68B9681846FFF7D0FD034687F82B30C5
:1024D000FB68DA683B6A1A44FB68DA60BA69FB6831
:1024E0005A607A6AFB681A613B6AFA6A9A420BD0B0
:1024F000FB681B69002B02D0FB681B6900E0064BE0
:10250000FA681361002301E097F82B301846303742
:10251000BD46B0BD40640208C8640208B0B584B0CE
:1025200000AF786039603B68DB691846FFF7A0F9B7
:102530000346FB60FB6800221C46154622462B46DC
:102540007868FFF740FE034618461037BD46B0BD19
:102550002DE9B04F8CB000AFF861B961BB699B7DCC
:1025600003F00F03022B52D14FF000024FF0000393
:10257000C7E90A23BB695B8A012B0BD1BB69DB6905
:102580001B78DBB200223B617A61D7E90434C7E9EA
:102590000A3435E0BB695B8A022B0BD1BB69DB696E
:1025A0001B889BB20022BB60FA60D7E90234C7E9FE
:1025B0000A3425E0BB695B8A042B0AD1BB69DB695D
:1025C0001B6800223B607A60D7E90034C7E90A340F
:1025D00016E0BB695B8A082B06D1BB69DB69D3E9CE
:1025E0000023C7E90A230BE0FB691B69002B02D01B
:1025F000FB691B6900E0364BFA691361002361E057
:10260000D7E90A23F869FFF7DEFD03465AE04FF0E9
:1026100000024FF00003C7E90823BB695B8A012B66
:102620000AD1BB69DB6993F900305BB2DA179A46CD
:102630009346C7E908AB32E0BB695B8A022B0AD13B
:10264000BB69DB69B3F900301BB2DA1798469146D3
:10265000C7E9088923E0BB695B8A042B08D1BB6901
:10266000DB691B68DA171C461546C7E9084516E002
:10267000BB695B8A082B06D1BB69DB69D3E9002300
:10268000C7E908230BE0FB691B69002B02D0FB693B
:102690001B6900E00E4BFA691361002312E0BB696D
:1026A0009B7D03F00F03032B06D1D7E90823F869BC
:1026B000FFF7B4FD034605E0D7E90823F869FFF703
:1026C00082FD034618463037BD46BDE8B08F00BFD7
:1026D000DC64020880B582B000AF786039603B6886
:1026E0005B8A042B07D13B68DB6919467868FFF7E2
:1026F000CFFD034616E03B685B8A082B07D13B6899
:10270000DB6919467868FFF7D2FD03460AE07B686B
:102710001B69002B02D07B681B6900E0034B7A68C1
:102720001361002318460837BD4680BDDC640208EB
:1027300080B584B000AF786039600023FB603B68EF
:10274000DB69FB60FB68002B06D100220021786862
:10275000FFF734FE034622E03B689B7D03F0C00395
:10276000002B13D1FB681B881A463B685B8A023B2F
:102770009A420BD97B681B69002B02D07B681B69CE
:1027800000E0094B7A681361002308E0FB68991C9C
:10279000FB681B881A467868FFF710FE0346184648
:1027A0001037BD4680BD00BFF064020880B586B01A
:1027B00000AF7860396000237B613B685B8A3B61D6
:1027C0003B68DB69BB603B689B7D03F0C003802BEB
:1027D00003D14FF0FF333B6111E03B69002B0BD17C
:1027E0007B681B69002B02D07B681B6900E01C4BD7
:1027F0007A68136100232FE03B69013B3B61BB68B2
:10280000002B02D100237B6120E0BB68FB6005E068
:102810007B6901337B61FB680133FB607A693B694B
:102820009A4203D2FB681B78002BF1D1FB681B781E
:10283000002B0BD07B681B69002B02D07B681B69C7
:1028400000E0084B7A681361002305E07A69B968F3
:102850007868FFF7B3FD034618461837BD4680BDBC
:10286000046502081865020880B584B000AF78607E
:1028700039603B685B6A002B0BD17B681B69002BBE
:1028800002D07B681B6900E0194B7A681361002352
:1028900029E03B689B7D03F00F03092B1AD13B68AD
:1028A0001B6A002B16D03B681B6A083BFB60FB6869
:1028B0001B68002B0ED0FB681B68FA68043239686D
:1028C00078689847034683F00103DBB2002B01D000
:1028D000002308E03B68596A3B68DB691A46786860
:1028E000FFF78EFD034618461037BD4680BD00BF7A
:1028F0002C65020880B582B000AF786039603B6813
:10290000D9693B685B8A1A467868FFF757FD03462A
:1029100018460837BD4680BD80B588B004AF7860E2
:1029200039600023FB733B68183318460AF058FCE3
:102930007B6802933B6801934FF480730093074BCD
:10294000074A0849022019F0B9F80346FB7397F9C2
:102950000F3018461037BD4680BD00BFA93A0008A9
:102960004D3A0008013A000880B588B002AF78609F
:102970004FF480737B61214BBB600023FB747B6948
:1029800003F00303002B04D07B699B0801339B00F9
:102990007B610023FB6023E0BA68FB68D31A7A6985
:1029A0009A420DD9BA68FB68D31A7B617B6903F040
:1029B0000303002B04D07B699B0801339B007B61E0
:1029C000FB680F4A98187B6800937B69FA68B968BE
:1029D00018F06EFF0346FB74FA687B691344FB60D2
:1029E000FA68BB689A4203D297F91330002BD3D010
:1029F00097F9133018461837BD4680BD302B0200BA
:102A000058760208000000002DE9F04F2DED048BF0
:102A10009DB002AF786239623B6A7B667B6A9B78C5
:102A20000B2B40F043817B6AD3F8032007F13C0372
:102A3000194610461AF0DFFB7B6AD3F80730D3E95A
:102A40000023C7E916237B6E03F527631946D7E9F0
:102A5000162341E90223B7F9423007EE903AB8EE67
:102A6000E77ADFED996AC7EE267AC7ED0B7AB7F9F8
:102A70003C3007EE903AB8EEE77ADFED936AC7EEA6
:102A8000267AC7ED0C7AB7F93E3007EE903AB8EEE9
:102A9000E77ADFED8D6AC7EE267AC7ED0D7AB7F9D2
:102AA000403007EE903AB8EEE77ADFED876AC7EE7E
:102AB000267AC7ED0E7AD7E9168942464B464FF083
:102AC00000004FF00001590141EAD2615001024675
:102AD0000B46B2EB080463EB09054FF000024FF020
:102AE0000003AB0143EA9463A201111BB96163EBDC
:102AF0000503FB614FF000024FF00003D7E90645E4
:102B00002946CB00214643EA51732146CA001146AB
:102B10001A460B4613EB08033B61134643EB0903CC
:102B20007B61D7E90434C7E91434D7E9140164A3FD
:102B3000D3E90023FEF766F902460B461346FB6411
:102B40003A6DFB6C614901FB03F3D31ABB647B6EE6
:102B500098687B6E1A787B6E5B78D7ED0C7A97ED70
:102B60000D7AD7ED0E6A97ED0B6AB7F8441005EEB3
:102B7000901AF8EE655AF02101910093B0EE652AA3
:102B8000F0EE461AB0EE661AF0EE470AB0EE670AAB
:102B90001346BA6CF96C04F0E5FA7B6E03F1180188
:102BA00007F12C030093D7E9162308460CF054FDD7
:102BB000D7E9160102460B464FF000044FF000051E
:102BC0005D0145EAD265540122462B46141ABC60C9
:102BD00063EB0103FB604FF000024FF00003D7E905
:102BE00002563446A3012C4643EA94632C46A201C4
:102BF0002C46B2EB040A344663EB040B4FF00002A0
:102C00004FF000034FEACB0343EA5A734FEACA027C
:102C100092469B461AEB00033B604BEB01037B6043
:102C2000D7E90034C7E91434D7E9140124A3D3E960
:102C30000023FEF7E7F802460B461346FB643A6DA5
:102C4000FB6C224901FB03F3D31ABB647B6E9E68C5
:102C50007B6E93F800807B6E5C787B6E9D7897ED41
:102C60000C8AD7ED0D8A97ED0E9AD7ED0B9A7B6EF5
:102C70001833184611F0F2F8F0EE407A01950094FE
:102C8000B0EE672AF0EE691AB0EE491AF0EE680A63
:102C9000B0EE480A4346BA6CF96C304604F062FA6A
:102CA0007B6E9B685A1C7B6E9A6000E000BF6C379D
:102CB000BD46BDEC048BBDE8F08F00BFAFF30080D4
:102CC00000CA9A3B000000000000804600CA9A3B00
:102CD0002DE9B04F9CB002AF786239623B6A7B66E7
:102CE0007B6A9B78072B40F036817B6AD3F8032000
:102CF00007F14003194610461AF0C9FAB7F94030F7
:102D000007EE903AF8EEE77AC7ED0D7AB7F9423060
:102D100007EE903AF8EEE77AC7ED0E7AB7F944304D
:102D200007EE903AF8EEE77AC7ED0F7A7B6AD3F8B0
:102D30000730D3E90023C7E916237B6E93F8783A6E
:102D4000002B12D07B6E03F52763D3E90001D7E98E
:102D500016238B4208BF824207D17B6ED3F87C3AA0
:102D60005A1C7B6EC3F87C2AF6E07B6E03F5276362
:102D70001946D7E91623C1E900237A6E012382F8A8
:102D8000783A7B6E03F527631946D7E9162341E9A4
:102D900002237B6ED3F8543A5A1C7B6EC3F8542A34
:102DA000D7E9164522462B464FF000004FF00001B0
:102DB000590141EAD261500102460B46B2EB0408C8
:102DC00063EB05094FF000024FF000034FEA89134F
:102DD00043EA98634FEA8812B2EB0801B96163EBEA
:102DE0000903FB614FF000024FF00003D7E90689A9
:102DF0004946CB00414643EA51734146CA00114659
:102E00001A460B461B193B61134645EB03037B61D6
:102E1000D7E90434C7E91434D7E9140150A3D3E93E
:102E20000023FDF7EFFF02460B461346FB643A6DA5
:102E3000FB6C4D4901FB03F3D31ABB647B6E9868AE
:102E40007B6E1A787B6E5B78D7ED0D7A97ED0E7AF4
:102E5000D7ED0F6AF12101910093B0EE661AF0EE02
:102E6000470AB0EE670A1346BA6CF96C04F0B7F97A
:102E70007B6E183307F1280207F1340118460BF076
:102E800023F8D7E9160102460B464FF000044FF035
:102E900000055D0145EAD265540122462B46141A0D
:102EA000BC6063EB0103FB604FF000024FF00003D6
:102EB000D7E902894C46A301444643EA9463444659
:102EC000A2014446B2EB040A4C4663EB040B4FF0FC
:102ED00000024FF000034FEACB0343EA5A734FEA74
:102EE000CA0292469B461AEB00033B604BEB010380
:102EF0007B60D7E90034C7E91434D7E9140118A37B
:102F0000D3E90023FDF77EFF02460B461346FB6420
:102F10003A6DFB6C144901FB03F3D31ABB647B6E5F
:102F200098687B6E19787B6E5B787A6E9278D7EDB5
:102F30000A7A97ED0B7AD7ED0C6A01920093B0EE06
:102F4000661AF0EE470AB0EE670A0B46BA6CF96CE7
:102F500004F045F900E000BF6837BD46BDE8B08F1A
:102F600000CA9A3B0000000000CA9A3B0000000023
:102F70002DE9B04F94B002AFF860B960BB687B64D4
:102F8000FB689B78072B40F0A180FB68D3F80330E7
:102F900007F12002114618461AF079F9B7F92030E6
:102FA00007EE903AF8EEE77AC7ED057AB7F92230E6
:102FB00007EE903AF8EEE77AC7ED067AB7F92430D3
:102FC00007EE903AF8EEE77AC7ED077AFB68D3F898
:102FD0000730D3E90023C7E90E237B6C03F5276391
:102FE0001946D7E90E2341E902237B6CD3F8583AFE
:102FF0005A1C7B6CC3F8582AD7E90E0102460B46CF
:103000004FF0000A4FF0000B4FEA431B4BEAD26B24
:103010004FEA421A52465B46B2EB000863EB0109E5
:103020004FF000024FF000034FEA891343EA986320
:103030004FEA8812B2EB080463EB09054FF0000277
:103040004FF00003EB0043EA5473E20014461D46C0
:1030500023183B6045EB01037B60D7E90034C7E9E7
:103060000C34D7E90C011DA3D3E90023FDF7CAFEF8
:1030700002460B461346FB623A6BFB6A164901FB9C
:1030800003F3D31ABB627B6C98687B6C1A787B6CF9
:103090005B78D7ED057A97ED067AD7ED076AF221CE
:1030A00001910093B0EE661AF0EE470AB0EE670A9F
:1030B0001346BA6AF96A04F092F87B6C183307F188
:1030C0001402114618460BF0C9F800E000BF48375B
:1030D000BD46BDE8B08F00BF00CA9A3B00CA9A3B0C
:1030E00000000000000000002DE9B04F94B002AFD6
:1030F000F860B960BB687B64FB689B78072B40F085
:10310000A180FB68D3F8033007F12002114618466E
:103110001AF0BDF8B7F9203007EE903AF8EEE77AEA
:10312000C7ED057AB7F9223007EE903AF8EEE77A64
:10313000C7ED067AB7F9243007EE903AF8EEE77A51
:10314000C7ED077AFB68D3F80730D3E90023C7E956
:103150000E237B6C03F527631946D7E90E2341E95B
:1031600002237B6CD3F8603A5A1C7B6CC3F8602A4C
:10317000D7E90E0102460B464FF0000A4FF0000B54
:103180004FEA431B4BEAD26B4FEA421A52465B4668
:10319000B2EB000863EB01094FF000024FF00003AF
:1031A0004FEA891343EA98634FEA8812B2EB0804A6
:1031B00063EB09054FF000024FF00003EB0043EA18
:1031C0005473E20014461D4623183B6045EB01038F
:1031D0007B60D7E90034C7E90C34D7E90C011DA3A3
:1031E000D3E90023FDF70EFE02460B461346FB62B1
:1031F0003A6BFB6A164901FB03F3D31ABB627B6C83
:1032000098687B6C1A787B6C5B78D7ED057A97EDC4
:10321000067AD7ED076AF42101910093B0EE661AA1
:10322000F0EE470AB0EE670A1346BA6AF96A03F08D
:10323000D6FF7B6C183307F11401002218460AF000
:103240005DFF00E000BF4837BD46BDE8B08F00BF5E
:1032500000CA9A3B00CA9A3B000000000000000030
:103260002DE9B04F94B002AFF860B960BB687B64E1
:10327000FB689B78072B40F09980FB68D3F80330FC
:1032800007F12002114618461AF001F8B7F920306C
:1032900007EE903AF8EEE77AC7ED057AB7F92230F3
:1032A00007EE903AF8EEE77AC7ED067AB7F92430E0
:1032B00007EE903AF8EEE77AC7ED077AFB68D3F8A5
:1032C0000730D3E90023C7E90E237B6C03F527639E
:1032D0001946D7E90E2341E902237B6CD3F85C3A07
:1032E0005A1C7B6CC3F85C2AD7E90E0102460B46D8
:1032F0004FF0000A4FF0000B4FEA431B4BEAD26B32
:103300004FEA421A52465B46B2EB000863EB0109F2
:103310004FF000024FF000034FEA891343EA98632D
:103320004FEA8812B2EB080463EB09054FF0000284
:103330004FF00003EB0043EA5473E20014461D46CD
:1033400023183B6045EB01037B60D7E90034C7E9F4
:103350000C34D7E90C0119A3D3E90023FDF752FD82
:1033600002460B461346FB623A6BFB6A124901FBAD
:1033700003F3D31ABB627B6C98687B6C1A787B6C06
:103380005B78D7ED057A97ED067AD7ED076AF321DA
:1033900001910093B0EE661AF0EE470AB0EE670AAC
:1033A0001346BA6AF96A03F01AFF00E000BF483713
:1033B000BD46BDE8B08F00BF00CA9A3B00CA9A3B29
:1033C0000000000080B5ADF5875D86B002AF07F163
:1033D000F00343F8EC0C07F1F00343F8F01C07F19D
:1033E000F00353F8F03C07F5875202F1080213602E
:1033F00007F5875303F108031B68002B06D007F578
:10340000875303F108031B685B7800E0002307F58E
:10341000875202F10702137007F1F00353F8EC3CF6
:10342000D3F803301B7807F5875202F106021370B8
:1034300007F1F00353F8EC3CD3F803305B7807F561
:10344000875202F10502137007F1F00353F8EC3CC8
:10345000D3F803309B7807F5875202F1040213700A
:1034600007F1F00353F8EC3C1B78FE2B06D1B74B69
:1034700007F5875202F10C0213600DE007F1F0032B
:1034800053F8EC3C1B78F82B40F08E82B04B07F5DC
:10349000875202F10C02136007F5875303F106030C
:1034A0001B78013B132B00F2678201A252F823F034
:1034B000013500081F350008593500087939000822
:1034C0007735000889350008D3350008E535000850
:1034D000F735000879390008093600084136000838
:1034E00065360008833600087939000895360008EB
:1034F000EB3600080937000891370008AD3900089D
:1035000007F5875303F105031B781A4607F5875320
:1035100003F10C0319688F481FF0F8FB47E207F529
:10352000875303F105031B781A4607F5875303F108
:103530000C03196888481FF0E9FB07F5875303F16E
:1035400005031A7807F5875303F10703187800235A
:10355000212101F035FC2AE207F5875303F1050329
:103560001B781A4607F5875303F10C0319687B484B
:103570001FF0CCFB1BE207F5875303F10C0319681E
:1035800077481FF0C3FB12E207F5875303F10503E9
:103590001A7807F5875303F104031B7807F5875161
:1035A00001F10C0109686F481FF0B0FB07F5875364
:1035B00003F105031A7807F5875303F104031B7819
:1035C00007F5875101F107010878202101F0F8FB88
:1035D000EDE107F5875303F10C03196862481FF00A
:1035E00095FBE4E107F5875303F10C0319685F4885
:1035F0001FF08CFBDBE107F5875303F10C0319681F
:103600005B481FF083FBD2E107F5875303F1050305
:103610001A7807F5875303F104031B7807F58751E0
:1036200001F10C01096853481FF070FB07F587533F
:1036300003F107031B781946012001F00BFCB6E1EA
:1036400007F5875303F10C0319684B481FF05EFB25
:1036500007F5875303F107031B781946002001F093
:10366000F9FBA4E107F5875303F105031B781A461C
:1036700007F5875303F10C03196840481FF046FB18
:1036800095E107F5875303F10C0319683C481FF0D7
:103690003DFB8CE107F5875303F104031B781A0205
:1036A00007F5875303F105031B7813431A4607F503
:1036B000875303F10C03196832481FF027FB07F505
:1036C000875303F104031B781A0207F5875303F1AC
:1036D00005031B781A4307F5875303F1070318788E
:1036E00000231E2101F06CFB61E107F5875303F114
:1036F00005031B781A4607F5875303F10C03196875
:1037000021481FF003FB52E107F5875303F105033E
:103710001B781A4607F5875303F10C0319681B48F9
:103720001FF0F4FA07F5875303F105031A7807F53C
:10373000875303F104031B7807F5875101F1070153
:103740000878222101F03CFB31E100BF3866020815
:10375000486602086066020888660208B4660208C5
:10376000E0660208F866020828670208486702084F
:10377000686702088C670208B4670208C867020815
:10378000F4670208106802084068020868680208C6
:1037900007F5875303F106031A7807F5875303F1FA
:1037A0000503197807F5875303F104031B78009389
:1037B0000B4607F5875101F10C0109687E481FF09F
:1037C000A5FA07F5875303F105031A7807F5875320
:1037D00003F104031B7807F5875101F1070108780D
:1037E0001F2101F0EDFA002307F5865202F11B02BA
:1037F0001370724B1A6907F5865303F11B031946C0
:103800002D2018F039FD034607F5875202F1030217
:10381000137007F5875303F103031A7807F58653EE
:1038200003F11B031B782D2165481FF06FFA634BD2
:103830001A6907F5865303F11B0319462E2018F069
:103840001BFD034607F5875202F10302137007F5CB
:10385000875303F103031A7807F5865303F11B031B
:103860001B782E2156481FF051FA544B1A6907F560
:10387000865303F11B0319462F2018F0FDFC034665
:1038800007F5875202F10302137007F5875303F11E
:1038900003031A7807F5865303F11B031B782F21C6
:1038A00047481FF033FA454B1A6907F5865303F171
:1038B0001B031946302018F0DFFC034607F587523A
:1038C00002F10302137007F5875303F103031A781B
:1038D00007F5865303F11B031B78302138481FF08E
:1038E00015FA364B1A6907F5865303F11B0319467F
:1038F000312018F0C1FC034607F5875202F103029C
:10390000137007F5875303F103031A7807F58653FD
:1039100003F11B031B78312129481FF0F7F907F148
:10392000F003E43B41F2CC02002118461FF034FBC7
:10393000002307F5865202F11C02136041F2CC010C
:1039400020481FF0E3F91D4B1A6907F11003043BEF
:103950001146184600F03CF8034607F5875202F17D
:103960000302137007F5875303F103031B7819460D
:1039700015481FF0CBF91AE007F5875303F106034A
:103980001B781A4607F5875303F10C0319680F4893
:103990001FF0BCF907F5875303F107031B7819469D
:1039A000022001F057FA02E000BF00E000BF07F577
:1039B00087571037BD4680BD986802080000002078
:1039C000C0680208EC6802080C6902082469020851
:1039D00080B584B000AF786039600023BB6007F128
:1039E00008023B6841F2CC01786818F03FF80346C2
:1039F000FB7397F90F3018461037BD4680BD0000A5
:103A000080B58AB004AFB9607A603B600346FB734F
:103A10003B687B617B691B797B827B8A5B0099B207
:103A2000FB7B9AB27B689BB2192002900193BB6822
:103A300000930123044812F073FE03465BB218465C
:103A40001837BD4680BD00BFA024012080B58EB0D0
:103A500004AFB9607A603B600346FB733B687B62EE
:103A60007B6A1B797B84FB7B3B840223FB837B6823
:103A7000BB833223BB617B8C5B0099B23A8CBB6900
:103A80000293BB8B0193BB6800930123054812F09E
:103A90004DFD0346FB7597F9173018462837BD468C
:103AA00080BD00BFA024012080B483B000AF786047
:103AB0003960094B1B6800225A6200BF064B1B6825
:103AC0005B6A7A689A42F9D800BF00BF0C37BD46DE
:103AD0005DF8047B704700BF6825012080B582B087
:103AE00000AF786039603A687968002019F082FC8C
:103AF000034618460837BD4680BD000080B485B037
:103B000000AF786039607B68FB600E4BBB600CE0F7
:103B1000FB685A1CFA601B781A46BB685340BB60AE
:103B2000BB68094A02FB03F3BB603B685A1E3A605C
:103B3000002BEDD1BB6818461437BD465DF8047BF9
:103B4000704700BFC59D1C819301000190B583B0F3
:103B500000AF78607B681B68114A934219D17B687B
:103B60009B88012B15D17B68DB88142B11D17B68D6
:103B70009B68C82B0DD17B68DC687B6814334FF4DD
:103B80007A611846FFF7BAFF03469C4201D1012330
:103B900000E00023DBB218460C37BD4690BD00BFE5
:103BA00042474D4380B483B000AF78607B6893EDAB
:103BB000007A7B681033D3ED006A7B682033D3ED45
:103BC000007A66EEA76A7B68143393ED006A7B681F
:103BD0001C33D3ED007A66EE277A76EEE77A27EE8D
:103BE000277A7B680433D3ED006A7B680C3393ED4E
:103BF000006A7B682033D3ED007A26EE276A7B6863
:103C00001433D3ED005A7B681833D3ED007A65EE98
:103C1000A77A76EE677A66EEA77A37EE677A7B68E0
:103C20000833D3ED006A7B680C3393ED006A7B6840
:103C30001C33D3ED007A26EE276A7B681033D3ED70
:103C4000005A7B681833D3ED007A65EEA77A76EEDA
:103C5000677A66EEA77A77EE277AB0EE670A0C37B6
:103C6000BD465DF8047B704780B586B000AF7860D4
:103C70007B68D3F8C43003F00103002B01D100238B
:103C8000F7E07B68D3ED197AB7EE007AF4EEC77AE5
:103C9000F1EE10FACCBF01230023DBB283F0010365
:103CA000DBB2002B1DD17B68D3ED197A9FED737ABF
:103CB000F4EEC77AF1EE10FA4CBF01230023DBB219
:103CC00083F00103DBB2002B0BD17B68D3ED197AB3
:103CD000F0EEE77A9FED6A7AF4EE477AF1EE10FAA9
:103CE00001D90023C5E00023FB7514E0FB7D7A6851
:103CF0009B0013440433D3ED007AF0EEE77A9FED96
:103D0000607AF4EE477AF1EE10FA01D90023B0E0C0
:103D1000FB7D0133FB75FB7D022BE7D90023FB758F
:103D200015E0FB7D7A6806339B0013440433D3ED22
:103D3000007AF0EEE77A9FED527AF4EE477AF1EEF0
:103D400010FA01D9002394E0FB7D0133FB75FB7D64
:103D5000082BE6D97B681C331846FFF723FF87ED55
:103D6000040AD7ED047AB5EE007AF4EEC77AF1EEE4
:103D700010FACCBF01230023DBB283F00103DBB2D6
:103D8000002B10D1D7ED047AB1EE007AF4EEC77AA9
:103D9000F1EE10FA4CBF01230023DBB283F00103E4
:103DA000DBB2002B01D0002363E07B68D3F8C43082
:103DB00003F01003002B46D00023FB7515E0FB7DBC
:103DC0007A6826339B0013440433D3ED007AF0EE77
:103DD000E77A9FED2B7AF4EE477AF1EE10FA01D9EB
:103DE000002346E0FB7D0133FB75FB7D082BE6D904
:103DF0007B689C331846FFF7D5FE87ED030AD7EDA5
:103E0000037AB5EE007AF4EEC77AF1EE10FACCBF81
:103E100001230023DBB283F00103DBB2002B10D1BE
:103E2000D7ED037AB1EE007AF4EEC77AF1EE10FA2C
:103E30004CBF01230023DBB283F00103DBB2002B74
:103E400001D0002315E07B68D3F8C43003F00803E9
:103E5000002B0DD07B68D3ED307AF0EEE77A9FED42
:103E6000087AF4EE477AF1EE10FA01D9002300E067
:103E7000012318461837BD4680BD00BF00007A44B4
:103E8000FFFF7F7F80B483B000AF78607B6893F8DA
:103E90003C30002B09D07B6893F8D035002B04D040
:103EA0007B6893F86439002B01D1002344E07B68E0
:103EB000D3ED0E7AF0EEE77A9FED227AF4EE477AB0
:103EC000F1EE10FA09D87B68D3ED0E7AB5EE007AE0
:103ED000F4EEC77AF1EE10FA01DD00232CE07B68E6
:103EE00003F5B863D3ED007AF0EEE77A9FED157A2B
:103EF000F4EE477AF1EE10FA0BD87B6803F5B8635D
:103F0000D3ED007AB5EE007AF4EEC77AF1EE10FA4E
:103F100001DD002310E07B6803F65413D3ED007A33
:103F2000F0EEE77A9FED077AF4EE477AF1EE10FAB9
:103F300001D9002300E0012318460C37BD465DF887
:103F4000047B7047FFFF7F7F80B582B000AF786051
:103F500039603868FFF788FE0346002B07D0786881
:103F6000FFF790FF0346002B01D0012300E0002360
:103F7000DBB218460837BD4680BD000080B584B06E
:103F800000AF0346FB71224BFB60F868FFF7DEFDD4
:103F90000346002B01D1002336E0FB79132B01D916
:103FA000002331E0FB79C82202FB03F31033FA68E7
:103FB000134404331846FFF757FE0346002B01D184
:103FC000002321E0FB79FA68C82101FB03F31344C5
:103FD000D8331B6803F02003002B01D1002313E02A
:103FE000FB7940F6882202FB03F31833094A98183C
:103FF000FB79C82202FB03F31033FA68134404333D
:10400000194610F0D3F8034618461037BD4680BD58
:10401000000006080000002080B586B000AF3B1D00
:1040200000221A605A609A60DA601A6100233B60CD
:1040300011F0DEFB00237B6002237B610723FB6022
:1040400001233B613A463B1D1146184611F042FDE3
:104050000346002B05D03B68194607481EF056FE64
:1040600004E000220021072000F0E2FE11F0E2FB54
:1040700000BF1837BD4680BD246A020880B582B0F3
:1040800000AF0346FB71FB791846FFF777FF034645
:10409000002B1AD0FB790F4A40F6882101FB03F36D
:1040A000134402331B7819460B481EF02FFEFB7990
:1040B000084A40F6882101FB03F3134401331878C2
:1040C00000230022052100F07BFE00BF0837BD461B
:1040D00080BD00BF000000204C6A0208B0B58AB065
:1040E00000AF002387F82630B54BFB61F869FFF776
:1040F0002DFD0346002B06D040F6B472F969B14895
:104100001EF0C9FF05E040F6B472FF21AD481EF075
:1041100043FFAC4BAC4A1A60AA4B01229A80A94BD0
:104120001422DA80A74BC8229A60A64B00221A619B
:10413000002387F82730CEE097F8273040F6882212
:1041400002FB03F31833A14A1344BB6197F82730ED
:104150009E4A40F6882101FB03F313440C331B787D
:1041600083F00103DBB2002B40F0A980BB6993F818
:104170003C30002B00F0A580BB6993F8D035002BB4
:1041800000F09F80BB69D3ED0E7AF0EEE77A9FEDE9
:10419000907AF4EE477AF1EE10FA00F29480BB695F
:1041A000D3ED0E7AB5EE007AF4EEC77AF1EE10FA9E
:1041B00000F38980BB6903F5B863D3ED007AF0EEB4
:1041C000E77A9FED837AF4EE477AF1EE10FA7CD825
:1041D000BB6903F5B863D3ED007AB5EE007AF4EE6F
:1041E000C77AF1EE10FA70DC97F82730C82202FB8C
:1041F00003F31033734A134404331946B8690FF0BC
:1042000011FF0346002B61D097F82730C82202FB2C
:1042100003F310336B4A134404331946B869FFF7AC
:1042200093FE0346002B51D097F82730654AC821EA
:1042300001FB03F31344D8331A6897F8273042F090
:1042400020026049C82000FB03F30B44D8331A60F6
:10425000BB6993F83E30022B14D197F82730594AA6
:10426000C82101FB03F31344D8331A6897F82730A9
:1042700042F040025349C82000FB03F30B44D833FB
:104280001A6018E0BB6993F83E30012B13D197F800
:1042900027304C4AC82101FB03F31344D8331A6872
:1042A00097F8273042F080024649C82000FB03F30C
:1042B0000B44D8331A60012387F8263006E000BF8C
:1042C00004E000BF02E000BF00E000BF97F8273025
:1042D000013387F8273097F82730132B7FF62CAF60
:1042E00097F82630002B03D13A481EF075FD63E0A5
:1042F0004FF47A613848FFF701FC0346314AD36036
:1043000011F076FA3B1D00221A605A609A60DA605A
:104310001A6100233B6000237B6002237B6107233B
:10432000FB6001233B613A463B1D1146184611F0E4
:10433000D1FB0346002B07D03B68194627481EF0E7
:10434000E5FC11F077FA37E000233B621BE03B6AA3
:1043500003F1006101F5C0213B6A1A4A13441B684E
:1043600000221C46154622462B46022011F0ECF98D
:104370000346002B04D0396A19481EF0C7FC07E039
:104380003B6A04333B623B6A40F6B3729342DED928
:1043900011F050FA3B6A40F6B37293420CD997F889
:1043A000263019460F481EF0B1FC97F8263000223F
:1043B0001946062000F03CFD2837BD46B0BD00BFC1
:1043C000000006087C11012042474D4300000020F8
:1043D000FFFF7F7F746A020890110120A86A02081B
:1043E000D86A0208086B020880B400AF054B0122AE
:1043F0001A70054B00221A6000BFBD465DF8047BB1
:10440000704700BF302101203421012080B582B0E7
:1044100000AF234B1B78002B3AD011F023F8024653
:10442000204B1B68D31AB3F57A7F33D311F01AF8F7
:1044300003461C4A13600023FB7120E0FB791A4AF3
:1044400040F6882101FB03F313440C331B7883F0FF
:104450000103DBB2002B0ED1FB7940F6882202FB70
:1044600003F31833104A13441846FFF70BFD0346B5
:10447000002B11D000E000BFFB790133FB71FB7909
:10448000132BDBD9FFF72AFE054B00221A7004E03C
:1044900000BF02E000BF00E000BF0837BD4680BD9E
:1044A00030210120342101200000002080B584B09B
:1044B00002AF00237B711C4B1B7B83F00103DBB23B
:1044C000002B03D019481EF087FC29E018481EF085
:1044D0001DFC0123FB8015E0FB88DBB2124A126948
:1044E0001146184617F0ECFB0346002B07D0FB885B
:1044F000194610481EF00AFC7B7901337B71FB885A
:104500000133FB80FB88C72BE6D979790A4B1B78EE
:1045100001930D2300931323252208481EF0F6FB78
:104520000837BD4680BD00BF00000020306B020888
:10453000486B0208686B0208781101206C6B020856
:1045400080B500AF02481EF047FC00BF80BD00BF31
:104550009C6B020880B586B002AF0346FB71FB7905
:10456000072B14D8E023FB81FB79012202FA03F325
:10457000DBB23B7307F10C02F9896423009301233A
:10458000054811F0D5FE03467B737B7B00E00123D9
:1045900018461037BD4680BDA024012080B485B0E8
:1045A00000AF786039600E4BFB600CE07B685A1CF2
:1045B0007A601B781A46FB685340FB60FB68094A27
:1045C00002FB03F3FB603B685A1E3A60002BEDD1FF
:1045D000FB6818461437BD465DF8047B704700BF82
:1045E000C59D1C819301000180B594B000AF3B6074
:1045F0000346FB710B46BB7113467B7107F1080341
:104600004822002118461EF0C7FC3B68BB60BB79FE
:104610003B737B793B61FB797B6101233B76012313
:1046200087F83030BB6D1B68FB61BB6D04331B68C2
:104630003B62BB6D08331B687B63BB6D0C331B682F
:10464000BB6307F10803184602F0FEFD00BF5037B8
:10465000BD4680BD90B591B002AF3B600346FB7193
:104660000B46BB7113467B7100237B6300233B63C6
:10467000BB6CFB61B96C3868FFF790FF03463B6287
:10468000FB6C7B623B6DBB627A79B979F87907F193
:104690001C0300934FF0FF33FFF7A6FF28E007F15C
:1046A0000C0300221A605A609A60DA60BA6C7B6B65
:1046B000D31AFB62FB6A102B01D91023FB623A6804
:1046C0007B6BD11807F10C03FA6A18461EF0E3FC65
:1046D0003B6B5A1C3A637C79B979F87907F10C0283
:1046E00000922246FFF780FF7A6BFB6A13447B63DC
:1046F0007A6BBB6C9A42D2D300BF00BF3C37BD4639
:1047000090BD80B59CB000AF3B600346FB710B468B
:10471000BB7113467B7107F1240348220021184620
:104720001EF03AFC07F10C0300221A605A609A60EE
:10473000DA601A615A6197F88030062B02D9062395
:1047400087F88030002387F86F3011E097F86F30DA
:104750009B00FA6F1A4497F86F3012689B00703311
:104760003B44643B1A6097F86F30013387F86F3031
:1047700097F86F2097F880309A42E7D33B681A0188
:10478000BB6F03F00F0313437B62BB7987F82830BC
:104790007B79FB62FB793B63012387F8343001238B
:1047A00087F84C30FB68BB653B69FB657B693B6602
:1047B000BB697B66FB69BB663B6A3B6407F124030C
:1047C000184602F041FD00BF7037BD4680BD0000B5
:1047D00080B582B000AF78607B684FF4FA621A60EF
:1047E0007B6804335A221A607B680833C8221A6037
:1047F0007B680C3328221A607B68103301221A6010
:104800007B68143303221A607B68183300221A6015
:104810007B681C33C8221A607B68203305221A602B
:104820007B6824330F221A607B68283396221A6033
:104830007B682C3314221A607B68303364221A6040
:104840007B68343332221A607B68383396221A60D0
:104850007B683C3332221A607B68403309221A603D
:1048600003F0EAFBF0EE407A9FED467A67EE877A36
:104870007B684433FDEEE77A17EE902A1A607B6876
:1048800048334FF4FA721A607B684C3309221A607D
:104890007B6850330F221A607B6854335A221A60A7
:1048A0007B68583340F2D5721A607B685C335A22B9
:1048B0001A607B6860335F221A607B686433282249
:1048C0001A607B68683364221A607B686C335A22F2
:1048D0001A607B68703340F279421A607B687433E7
:1048E00032221A607B68783302221A607B687C333C
:1048F0004FF496721A607B688033FA221A607B68E4
:104900008433C8221A607B68883396221A607B68D9
:104910008C335A221A607B6890334FF496721A6077
:104920007B6894334FF496721A607B689833102238
:104930001A607B689C3328221A607B68A0330422AB
:104940001A607B68A4330C221A607B68A833142297
:104950001A607B68AC3328221A607B68B03350221F
:104960001A607B68B43319221A607B68B833192245
:104970001A607B68BC3301221A6000BF0837BD464D
:1049800080BD00BF0000C84280B52DED028B84B011
:1049900000AF78607B68002B01DA00237B607B68C6
:1049A000642B01DD64237B607B6807EE903AB8EEF0
:1049B000E77ADFED1D6AC7EE267AC7ED037A97ED39
:1049C000030A03F01DFBD7ED037A9FED177A67EE1C
:1049D000877ABDEEE78A03F02FFBF0EE407A9FED79
:1049E000127A67EE877AFDEEE76AD7ED037AB0EECA
:1049F000087A67EE877AB7EE007A77EE877A9FEDCE
:104A00000A7A67EE877AFDEEE77A17EE903A16EEAD
:104A1000902A18EE101A05481EF078F900BF1037DA
:104A2000BD46BDEC028B80BD0000C842EC6B0208A5
:104A300080B586B000AF78607B687B614FF0FF3354
:104A40003B610023FB607B69002B6FD07B691B7887
:104A5000542B03D07B691B78742B06D17B690133FF
:104A60007B6102E07B6901337B617B691B78202BD2
:104A7000F8D07B691B78092BF4D07B691B78442B19
:104A800003D07B691B78642B17D17B6901331B78BA
:104A9000492B04D07B6901331B78692B0DD17B69CD
:104AA00002331B78522B04D07B6902331B78722BA4
:104AB00003D17B6903337B6106E01E481EF08CF94D
:104AC00035E07B6901337B617B691B78202BF8D053
:104AD0007B691B78092BF4D000233B6110E03A6915
:104AE00013469B0013445B001A467B691B78303BDE
:104AF00013443B61FB680133FB607B6901337B61DD
:104B00007B691B782F2B06D97B691B78392B02D840
:104B1000FB68032BE3DDFB68002B03D105481EF087
:104B20005BF904E03869FFF72FFF00E000BF18379A
:104B3000BD4680BD246C020880B5ADF5067D04AF8E
:104B400007F582734FF48072002118461EF024FA94
:104B500007F50273A3F58273954A1A6007F502738D
:104B6000A3F5827302225A6007F50273A3F58273DC
:104B7000904A9A6014219048FFF710FD024607F50D
:104B80000273A3F58273DA6007F50273A3F58273EB
:104B900040F638221A6107F50273A3F58273C82222
:104BA0005A6107F50273A3F582730022DA6107F5F3
:104BB0000273A3F582734FF49A621A6207F50273C7
:104BC000A3F5827340F2F4425A6207F50273A3F52B
:104BD000827340F2D4529A6207F50273A3F582738E
:104BE0004FF4EB62DA6207F50273A3F582734FF4B8
:104BF0000B621A6307F50273A3F5827340F6BC02D9
:104C00005A6307F50273A3F5827340F6CC029A63E8
:104C100007F50273A3F5827340F6CC12DA633B1DED
:104C20001846FFF7D5FD391D07F582734033C022C2
:104C300018461EF030FA07F50273A3F582731A695D
:104C400007F50273A3F5A2731A6007F50273A3F5C3
:104C500082735A6907F50273A3F5A2735A6007F5C8
:104C60000273A3F58273DA6907F50273A3F5A273E1
:104C70009A6007F50273A3F582731A6A07F5027347
:104C8000A3F5A273DA6007F50273A3F582735A6A7B
:104C900007F50273A3F5A2731A6107F50273A3F572
:104CA00082739A6A07F50273A3F5A2735A6107F536
:104CB0000273A3F58273DA6A07F50273A3F5A27390
:104CC0009A6107F50273A3F582731A6B07F50273F5
:104CD000A3F5A273DA6107F50273A3F582735A6B29
:104CE00007F50273A3F5A2731A6207F50273A3F521
:104CF00082739A6B07F50273A3F5A2735A6207F5E4
:104D00000273A3F58273DA6B07F50273A3F5A2733E
:104D10009A6207F1C40340211846FFF73FFC0246A0
:104D200007F50273A3F582739A61002387F80732AF
:104D300034E097F80732214A40F6882101FB03F35B
:104D400013440C331B7883F00103DBB2002B1FD11B
:104D500097F80732194A40F6882101FB03F3134400
:104D6000197897F80732154A40F6882000FB03F3BC
:104D7000134401331A7807F582730320029002204E
:104D800001904FF480700090FA20FFF763FC00E080
:104D900000BF97F80732013387F8073297F80732D8
:104DA000132BC6D900BF00BF07F50277BD4680BDF3
:104DB000594C50522109262088A1040800000020E7
:104DC00080B596B000AFBA607B600346FB730B46BC
:104DD000BB8107F110034822002118461EF0DCF8C1
:104DE000124B1B685A1C11490A603B6100233B753A
:104DF000FB7BBB61FB23FB61012387F82030012390
:104E000087F83830BB897B6210F02CFB0346BB620D
:104E1000BB68FB637B683B6407F11003184602F034
:104E200013FA00BF5837BD4680BD00BF9C2101204A
:104E300080B584B000AF0346B9607A60FB81F98920
:104E40007B68BA680020FFF7BBFF00BF1037BD4684
:104E500080BD000080B582B000AF03460A46FB71FA
:104E60001346BB71FB79002B0BD1154B1B6801332B
:104E7000134A1360B879002300221821FFF7A0FF1E
:104E800019E0FB79012B0BD10E4B1B6801330D4A46
:104E90001360B879002300221921FFF791FF0AE07F
:104EA000094B1B680133084A1360B87900230022BC
:104EB0001A21FFF785FF00BF0837BD4680BD00BF40
:104EC000A4210120AC210120A8210120B0B5A6B069
:104ED00004AF10F0C7FAC7F88000084B1B68D7F87A
:104EE0008020D31AB3F57A7FC0F01882034AD7F82E
:104EF00080301360002387F8873009E20C220120FC
:104F000097F8873040F6882202FB03F31833D84A1B
:104F10001344FB6797F88730D54A40F6882101FB98
:104F200003F313440C331B7883F00103DBB2002B33
:104F300040F0E881D7F8803007EE903AF8EE677AD3
:104F4000C7ED017A97F88730C94A40F6882101FBFE
:104F500003F3134408331B6807EE903AF8EE677AC0
:104F6000C7ED027A97F88730C14A40F6882101FBE5
:104F700003F3134403F654231B6807EE903AF8EE4C
:104F8000677AC7ED037A97F88730B94A40F68821E7
:104F900001FB03F3134403F658231B6807EE903A12
:104FA000F8EE677AC7ED047A97F88730B04A40F692
:104FB000882101FB03F3134403F65C231B6807EE0F
:104FC000903AF8EE677AC7ED057A97F88730A84AE5
:104FD00040F6882101FB03F3134403F526631B68A5
:104FE00007EE903AF8EE677AC7ED067AA14B1B6898
:104FF00007EE903AF8EE677AC7ED077A9E4B1B688A
:1050000007EE903AF8EE677AC7ED087A9B4B1B687B
:1050100007EE903AF8EE677AC7ED097A984B1B686D
:1050200007EE903AF8EE677AC7ED0A7A954B1B685F
:1050300007EE903AF8EE677AC7ED0B7A924B1B6851
:1050400007EE903AF8EE677AC7ED0C7A8F4B1B6843
:1050500007EE903AF8EE677AC7ED0D7A8C4B1B6835
:1050600007EE903AF8EE677AC7ED0E7AFB6FD3F849
:10507000583207EE903AF8EE677AC7ED0F7AFB6F79
:1050800093F83C3007EE903AF8EE677AC7ED107A65
:10509000FB6F93F8613207EE903AF8EE677AC7ED4E
:1050A000117AF86F08F0C8FE034607EE903AF8EE62
:1050B000677AC7ED127AF86F08F0F8FE034607EE3C
:1050C000903AF8EE677AC7ED137AFB6F93F81E39C2
:1050D00007EE903AF8EE677AC7ED147AFB6F93F813
:1050E000CA3807EE903AF8EE677AC7ED157AFB6F8B
:1050F00093F8643907EE903AF8EE677AC7ED167ABE
:10510000FB6F93F8D03507EE903AF8EE677AC7ED6B
:10511000177A97F88730564A40F6882101FB03F347
:10512000134403F66823D3E90023144600252046E0
:105130002946FBF721FE03463B6697F887304C4A29
:1051400040F6882101FB03F3134403F66823D3E9F7
:1051500000014FF000024FF000030A000023104648
:105160001946FBF709FE03467B664A4BBB664FF0C8
:105170008043FB664FF07E533B6797F887303C4A8D
:1051800040F6882101FB03F3134403F67C231B68DC
:1051900007EE903AF8EE677AC7ED1D7A4FF00003FC
:1051A000BB6797F88730324A40F6882101FB03F34A
:1051B0001344197897F887302D4A40F6882000FB71
:1051C00003F3134401331A78062302933B1D019322
:1051D00000230093D7F88030FC20FFF792FA97F86D
:1051E0008730234A40F6882101FB03F313441978E2
:1051F00097F887301E4A40F6882000FB03F31344DB
:1052000001331A783B1D18330620029001930123C5
:105210000093D7F88030FC20FFF773FA97F88730B7
:10522000134A40F6882101FB03F31344197897F8D9
:1052300087300F4A40F6882000FB03F31344013304
:105240001A783B1D3033062002900193022300930D
:10525000D7F88030FC20FFF754FA97F88730044ADB
:1052600040F6882101FB03F31344197814E000BFD2
:1052700000000020A02101209C210120A421012068
:10528000A8210120AC210120B0210120B42101205E
:10529000B82101202598004E97F88730214A40F622
:1052A000882000FB03F3134401331A783B1D483375
:1052B00006200290019303230093D7F88030FC204E
:1052C000FFF71FFA97F88730164A40F6882101FB4E
:1052D00003F31344197897F88730124A40F6882070
:1052E00000FB03F3134401331A783B1D603306209F
:1052F0000290019304230093D7F88030FC20FFF73D
:1053000000FA00E000BF97F88730013387F8873054
:1053100097F88730132B7FF6F3AD00E000BF883796
:10532000BD46B0BD0000002080B586B000AF03468A
:10533000FB71FB7940F6882202FB03F318336F4AB6
:1053400013447B617B69D3F858323B617B6993F8E6
:105350001E39FB737B6993F8CA38BB73786908F010
:105360006BFD03467B73FB79644A40F6882101FBA1
:1053700003F3134403F528631B683A699A4222D069
:10538000FB795E4A40F6882101FB03F313440133A5
:105390001878FB79594A40F6882101FB03F313443E
:1053A00003F528631B681A463B691121FFF708FDC6
:1053B000FB79524A40F6882101FB03F3134403F5BD
:1053C00028633A691A60FB794C4A40F6882101FB50
:1053D00003F3134403F684231B78FA7B9A4225D007
:1053E000FB7B002B04D0464B1B680133444A1360FF
:1053F000FB79424A40F6882101FB03F31344013351
:105400001878FB7B002B01D0122100E01321002330
:105410000022FFF7D5FCFB79384A40F6882101FBD2
:1054200003F3134403F68423FA7B1A70FB79334A9F
:1054300040F6882101FB03F3134403F685231B7810
:10544000BA7B9A4225D0BB7B002B04D02D4B1B6826
:1054500001332C4A1360FB79284A40F6882101FB6E
:1054600003F3134401331878BB7B002B01D01421C4
:1054700000E0152100230022FFF7A2FCFB791F4A60
:1054800040F6882101FB03F3134403F68523BA7B1E
:105490001A70FB79194A40F6882101FB03F3134483
:1054A00003F686231B787A7B9A4222D0FB79134A33
:1054B00040F6882101FB03F3134401331878FB798C
:1054C0000E4A40F6882101FB03F3134403F68623BA
:1054D0001B781A467B7B1621FFF772FCFB79074A83
:1054E00040F6882101FB03F3134403F686237A7BFD
:1054F0001A7000BF1837BD4680BD00BF00000020F5
:10550000B0210120B4210120B0B5BAB004AFFFF73B
:1055100013FB002200210120FFF78AFC002387F8FB
:10552000D73091E097F8D7304E4A40F6882101FBFA
:1055300003F313440C331B7883F00103DBB2002B1D
:105540007CD197F8D73040F6882202FB03F318335A
:10555000444A13443A46114618460EF063FD03468A
:10556000002B1CD097F8D7303E4A40F6882101FB2B
:1055700003F31344197897F8D7303A4A40F6882055
:1055800000FB03F3134401331A783B4601200290D9
:1055900004200190C8200090F520FFF75BF897F8F1
:1055A000D730304A40F6882101FB03F313441978C1
:1055B00097F8D7302B4A40F6882000FB03F31344BA
:1055C00001331A7897F8D73040F6882000FB03F3B0
:1055D000183324480344022002900220019040F630
:1055E00038200090F620FFF735F897F8D7301D4A9D
:1055F00040F6882101FB03F3134403F66823D3E943
:105600000023C7E9322397F8D730164A40F688219D
:1056100001FB03F3134401331C78D7F8C850D7E9D2
:1056200032014FF000024FF000030A00002313463E
:105630002A461B212046FFF7C3FB00E000BF97F876
:10564000D730013387F8D73097F8D730132B7FF650
:1056500069AF002200210220FFF7EAFB00BFD83724
:10566000BD46B0BD00000020F0B587B004AF0023F8
:10567000FB71AEE0FB795C4A40F6882101FB03F345
:10568000134403331B787B71FA79FB794FF4427131
:1056900001FB02F255490A44534940F6882000FBB9
:1056A00003F30B4410331A60FB794F4A40F688210C
:1056B00001FB03F313440C3300221A700123BB7166
:1056C0007B791846FEF746FF03463B713B79002B7A
:1056D00015D102200FF0D2FEFB79434A40F6882113
:1056E00001FB03F3134404331B789BB25B0099B2B4
:1056F000142302223E4811F039FA0346BB71BB79EC
:10570000002B13D1FB79184600F080F80346FB709C
:1057100097F90330002B09D1FB79334A40F68821F1
:1057200001FB03F313440C3301221A70FB792E4A58
:1057300040F6882101FB03F313440C331B78002B44
:1057400001D02C4905E0BB79002B01D12A4900E0AA
:105750002A49FB79244A40F6882000FB03F31344CE
:105760001B781E46FB79204A40F6882000FB03F395
:10577000134401331B789C46FB791B4A40F6882072
:1057800000FB03F3134403331B781C46FB79164AD2
:1057900040F6882000FB03F3134404331B781D46B6
:1057A000FB79114A40F6882000FB03F313440C33C5
:1057B0001B78002B01D0124B00E0124B0293019595
:1057C00000946346324610481DF0A0FAFB7901337D
:1057D000FB71FB79132B7FF64DAFFFF795FE00BFF2
:1057E0000C37BD46F0BD00BF00000020D8D400201B
:1057F000A0240120486C0208506C0208586C020872
:10580000606C0208686C0208706C02082DE9F043B5
:105810008BB000AF0346FB716B461E46002387F832
:105820002730172387F8243097F824100B46013BC4
:105830003B62CBB20022984691464FF000024FF0F7
:1058400000034FEAC90343EA58734FEAC802CBB2D8
:1058500000221C4615464FF000024FF00003EB00FB
:1058600043EA5473E2000B460733DB08DB00ADEB81
:10587000030D6B460033FB610023FB8100237B7328
:1058800000233B730023FB72FB797C4A40F688219E
:1058900001FB03F3134410331A68FB7940F68821A7
:1058A00001FB03F375490B4419461046FDF734F824
:1058B00003461A46FB691A70FB791846FEF7DEFBB1
:1058C000FB796E4A40F6882101FB03F31344103341
:1058D0001B68184616F0B2F803461A46FB695A7060
:1058E000FB79664A40F6882101FB03F31344103329
:1058F0001A6807F10D031146184615F04EFF0346CE
:105900001A46FB699A70FB795C4A40F6882101FBD4
:1059100003F3134410331A6807F10C0311461846B9
:1059200015F055FF03461A46FB69DA707B7B892B1D
:1059300002D0FB690122DA700123FB76FB794F4A22
:1059400040F6882101FB03F3134410331A68FB7EF1
:105950001146184615F0E6FF03461A46FB691A7110
:105960002023BB76FB79454A40F6882101FB03F3EF
:10597000134410331A68BB7E1146184615F0EEFF2B
:1059800003461A46FB695A7100237B76FB793B4A32
:1059900040F6882101FB03F3134410331A687B7E21
:1059A0001146184615F0F6FF03461A46FB699A7130
:1059B00000233B76FB79314A40F6882101FB03F353
:1059C000134410331A683B7E1146184615F0FEFF4B
:1059D00003461A46FB69DA71FB79284A40F68821AA
:1059E00001FB03F3134410331A6807F10B0311464C
:1059F000184615F020FF03461A46FB691A72FB7A17
:105A000003F01003002B00F05981FB791B4A40F68C
:105A1000882101FB03F3134410331B681846FCF77D
:105A2000A3FF03461A46FB691A72FB6993F9083013
:105A3000002B06D012481DF069F9FB6993F9083074
:105A400001E2FB790D4A40F6882101FB03F3134480
:105A500010331B68184615F04DFF03461A46FB69C4
:105A60001A72FB6993F90830002B0DD005481DF020
:105A70004DF9FB6993F90830E5E100BF0000002013
:105A8000B46C0208C46C0208FB798D4A40F6882188
:105A900001FB03F3134410331A6807F10E03114698
:105AA000184615F0AEFE03461A46FB695A72FB799A
:105AB00040F6882202FB03F3814A1A44FB798049AD
:105AC00040F6882000FB03F30B4410331B687D492C
:105AD000FE2016F01DF803461A46FB699A72FB7900
